:020000040800F2
:1000000000500020192900088D26000893260008BA
:10001000992600089F260008A52600080000000079
:10002000000000000000000000000000AB260008F7
:10003000B726000800000000C3260008D1260008EB
:100040006129000861290008612900086129000868
:100050006129000861290008612900086129000858
:100060006129000861290008612900086129000848
:100070006129000861290008612900086129000838
:100080006129000861290008612900086129000828
:1000900061290008F9260008612900086129000883
:1000A0006129000861290008612900086129000808
:1000B0000D27000821270008612900086129000890
:1000C00061290008612900086129000861290008E8
:1000D00061290008612900086129000861290008D8
:1000E000612900086129000861290008000000005A
:1000F0000000000000000000000000000000000000
:0C01000000000000000000005FF808F1A3
:1001100010B5054C237833B9044B13B10448AFF341
:1001200000800123237010BD0C020020000000009D
:1001300028A7000808B5034B1BB103490348AFF3D8
:10014000008008BD000000001002002028A7000861
:10015000034613F8012B002AFBD1181A0138704707
:1001600081F0004102E000BF83F0004330B54FEA68
:1001700041044FEA430594EA050F08BF90EA020FD5
:100180001FBF54EA000C55EA020C7FEA645C7FEA68
:10019000655C00F0E2804FEA5454D4EB5555B8BF8B
:1001A0006D420CDD2C4480EA020281EA030382EAFC
:1001B000000083EA010180EA020281EA0303362D8E
:1001C00088BF30BD11F0004F4FEA01314FF4801C61
:1001D0004CEA113102D0404261EB410113F0004F73
:1001E0004FEA03334CEA133302D0524263EB43032A
:1001F00094EA050F00F0A780A4F10104D5F1200EC8
:100200000DDB02FA0EFC22FA05F2801841F1000122
:1002100003FA0EF2801843FA05F359410EE0A5F1F6
:1002200020050EF1200E012A03FA0EFC28BF4CF027
:10023000020C43FA05F3C01851EBE37101F00045DD
:1002400007D54FF0000EDCF1000C7EEB00006EEBEA
:100250000101B1F5801F1BD3B1F5001F0CD3490874
:100260005FEA30004FEA3C0C04F101044FEA4452CB
:1002700012F5800F80F09A80BCF1004F08BF5FEA52
:10028000500C50F1000041EB045141EA050130BD32
:100290005FEA4C0C404141EB0101013C28BFB1F544
:1002A000801FE9D291F0000F04BF01460020B1FA8F
:1002B00081F308BF2033A3F10B03B3F120020CDA62
:1002C0000C3208DD02F1140CC2F10C0201FA0CF040
:1002D00021FA02F10CE002F11402D8BFC2F1200CA5
:1002E00001FA02F120FA0CFCDCBF41EA0C0190405B
:1002F000E41AA2BF01EB0451294330BD6FEA0404A4
:100300001F3C1CDA0C340EDC04F11404C4F120028E
:1003100020FA04F001FA02F340EA030021FA04F3A0
:1003200045EA030130BDC4F10C04C4F1200220FAF7
:1003300002F001FA04F340EA0300294630BD21FA35
:1003400004F0294630BD94F0000F83F4801306BFFB
:1003500081F480110134013D4EE77FEA645C18BFEF
:100360007FEA655C29D094EA050F08BF90EA020F86
:1003700005D054EA000C04BF1946104630BD91EA7E
:10038000030F1EBF0021002030BD5FEA545C05D181
:100390004000494128BF41F0004130BD14F58004C0
:1003A0003CBF01F5801130BD01F0004545F0FE4134
:1003B00041F470014FF0000030BD7FEA645C1ABF69
:1003C000194610467FEA655C1CBF0B46024650EAA0
:1003D000013406BF52EA033591EA030F41F40021CC
:1003E00030BD00BF90F0000F04BF0021704730B552
:1003F0004FF4806404F132044FF000054FF0000127
:1004000050E700BF90F0000F04BF0021704730B5E7
:100410004FF4806404F1320410F0004548BF4042BC
:100420004FF000013EE700BF42004FEAE2014FEA11
:1004300031014FEA02701FBF12F07F4393F07F4FEC
:1004400081F06051704732F07F4208BF704793F0EF
:100450007F4F04BF41F40021704730B54FF4607402
:1004600001F0004521F000411CE700BF50EA010205
:1004700008BF704730B54FF000050AE050EA0102AE
:1004800008BF704730B511F0004502D5404261EB1E
:1004900041014FF4806404F132045FEA915C3FF45F
:1004A000D8AE4FF003025FEADC0C18BF03325FEAFC
:1004B000DC0C18BF033202EBDC02C2F1200300FAAD
:1004C00003FC20FA02F001FA03FE40EA0E0021FAD2
:1004D00002F11444BDE600BF70B54FF0FF0C4CF4C0
:1004E000E06C1CEA11541DBF1CEA135594EA0C0F72
:1004F00095EA0C0F00F0DEF82C4481EA030621EAAD
:100500004C5123EA4C5350EA013518BF52EA0335E7
:1005100041F4801143F4801338D0A0FB02CE4FF099
:100520000005E1FB02E506F00042E0FB03E54FF0C9
:100530000006E1FB03569CF0000F18BF4EF0010EC1
:10054000A4F1FF04B6F5007F64F5407404D25FEABD
:100550004E0E6D4146EB060642EAC62141EA555170
:100560004FEAC52040EA5E504FEACE2EB4F1FD0CB2
:1005700088BFBCF5E06F1ED8BEF1004F08BF5FEA30
:10058000500E50F1000041EB045170BD06F00046E2
:1005900046EA010140EA020081EA0301B4EB5C048F
:1005A000C2BFD4EB0C0541EA045170BD41F4801187
:1005B0004FF0000E013C00F3AB8014F1360FDEBFAC
:1005C000002001F0004170BDC4F10004203C35DA88
:1005D0000C341BDC04F11404C4F1200500FA05F30B
:1005E00020FA04F001FA05F240EA020001F00042AC
:1005F00021F0004110EBD37021FA04F642EB060122
:100600005EEA430E08BF20EAD37070BDC4F10C044B
:10061000C4F1200500FA04F320FA05F001FA04F20F
:1006200040EA020001F0004110EBD37041F10001FB
:100630005EEA430E08BF20EAD37070BDC4F1200506
:1006400000FA05F24EEA020E20FA04F301FA05F26E
:1006500043EA020321FA04F001F0004121FA04F216
:1006600020EA020000EBD3705EEA430E08BF20EAE6
:10067000D37070BD94F0000F0FD101F00046400020
:1006800041EB010111F4801F08BF013CF7D041EAA2
:10069000060195F0000F18BF704703F000465200A6
:1006A00043EB030313F4801F08BF013DF7D043EA77
:1006B0000603704794EA0C0F0CEA135518BF95EA2D
:1006C0000C0F0CD050EA410618BF52EA4306D1D1B4
:1006D00081EA030101F000414FF0000070BD50EAD3
:1006E000410606BF1046194652EA430619D094EA5D
:1006F0000C0F02D150EA013613D195EA0C0F05D147
:1007000052EA03361CBF104619460AD181EA03019A
:1007100001F0004141F0FE4141F470014FF0000052
:1007200070BD41F0FE4141F4780170BD70B54FF0ED
:10073000FF0C4CF4E06C1CEA11541DBF1CEA13556D
:1007400094EA0C0F95EA0C0F00F0A7F8A4EB05044F
:1007500081EA030E52EA03354FEA013100F0888046
:100760004FEA03334FF0805545EA131343EA12630F
:100770004FEA022245EA111545EA10654FEA0026C4
:100780000EF000419D4208BF964244F1FD0404F57D
:10079000407402D25B084FEA3202B61A65EB0305D9
:1007A0005B084FEA32024FF480104FF4002CB6EB96
:1007B000020E75EB030E22BFB61A754640EA0C0016
:1007C0005B084FEA3202B6EB020E75EB030E22BF56
:1007D000B61A754640EA5C005B084FEA3202B6EB97
:1007E000020E75EB030E22BFB61A754640EA9C0056
:1007F0005B084FEA3202B6EB020E75EB030E22BF26
:10080000B61A754640EADC0055EA060E18D04FEAE3
:10081000051545EA16754FEA06164FEAC30343EA83
:1008200052734FEAC2025FEA1C1CC0D111F4801F50
:100830000BD141EA00014FF000004FF0004CB6E749
:1008400011F4801F04BF01430020B4F1FD0C88BFE8
:10085000BCF5E06F3FF6AFAEB5EB030C04BFB6EBF3
:10086000020C5FEA500C50F1000041EB045170BDE6
:100870000EF0004E4EEA113114EB5C04C2BFD4EB13
:100880000C0541EA045170BD41F480114FF0000E97
:10089000013C90E645EA060E8DE60CEA135594EA13
:1008A0000C0F08BF95EA0C0F3FF43BAF94EA0C0F16
:1008B0000AD150EA01347FF434AF95EA0C0F7FF48B
:1008C00025AF104619462CE795EA0C0F06D152EADF
:1008D00003353FF4FDAE1046194622E750EA4106C3
:1008E00018BF52EA43067FF4C5AE50EA41047FF4D4
:1008F0000DAF52EA43057FF4EBAE12E74FF0FF3C39
:1009000006E000BF4FF0010C02E000BF4FF0010C09
:100910004DF804CD4FEA410C7FEA6C5C4FEA430C82
:1009200018BF7FEA6C5C1BD001B050EA410C0CBFD1
:1009300052EA430C91EA030F02BF90EA020F002033
:10094000704710F1000F91EA030F58BF994208BF9A
:1009500090422CBFD8176FEAE37040F00100704757
:100960004FEA410C7FEA6C5C02D150EA013C07D1AE
:100970004FEA430C7FEA6C5CD6D152EA033CD3D0F9
:100980005DF8040B704700BF8446104662468C46F3
:100990001946634600E000BF01B5FFF7B7FF002826
:1009A00048BF10F1000F01BD4DF808EDFFF7F4FF4F
:1009B0000CBF012000205DF808FB00BF4DF808EDDA
:1009C000FFF7EAFF34BF012000205DF808FB00BFFD
:1009D0004DF808EDFFF7E0FF94BF012000205DF81F
:1009E00008FB00BF4DF808EDFFF7CEFF94BF0120D4
:1009F00000205DF808FB00BF4DF808EDFFF7C4FFCD
:100A000034BF012000205DF808FB00BF4FEA410C15
:100A10007FEA6C5C02D150EA013C0AD14FEA430CF8
:100A20007FEA6C5C02D152EA033C02D14FF0000035
:100A300070474FF0010070474FEA410212F5001273
:100A400015D211D56FF47873B3EB625212D94FEA15
:100A5000C12343F0004343EA505311F0004F23FAFF
:100A600002F018BF404270474FF00000704750EA54
:100A7000013005D111F0004008BF6FF00040704711
:100A80004FF00000704700BF4A0011D212F500126B
:100A900011D20DD56FF47873B3EB62520ED44FEAD6
:100AA000C12343F0004343EA505323FA02F0704756
:100AB0004FF00000704750EA013002D14FF0FF3094
:100AC00070474FF0000070474FEA4102B2F1E04337
:100AD00024BFB3F5001CDCF1FE5C0DD901F0004C25
:100AE0004FEAC0024CEA5070B2F1004F40EB830075
:100AF00008BF20F00100704711F0804F21D113F1A1
:100B00003872BCBF01F00040704741F480114FEAD9
:100B10005252C2F11802C2F1200C10FA0CF320FA62
:100B200002F018BF40F001004FEAC1234FEAD3237F
:100B300003FA0CFC40EA0C0023FA02F34FEA4303E9
:100B4000CCE77FEA625307D150EA01331EBF4FF072
:100B5000FE4040F44000704701F0004040F0FE408D
:100B600040F40000704700BF80F0004002E000BF8A
:100B700081F0004142001FBF5FEA410392EA030F88
:100B80007FEA226C7FEA236C6AD04FEA1262D2EBD2
:100B90001363C1BFD218414048404140B8BF5B42D7
:100BA000192B88BF704710F0004F40F4000020F070
:100BB0007F4018BF404211F0004F41F4000121F086
:100BC0007F4118BF494292EA030F3FD0A2F10102D0
:100BD00041FA03FC10EB0C00C3F1200301FA03F10E
:100BE00000F0004302D5494260EB4000B0F5000F31
:100BF00013D3B0F1807F06D340084FEA310102F1F0
:100C00000102FE2A51D2B1F1004F40EBC25008BFA1
:100C100020F0010040EA03007047490040EB00006B
:100C2000013A28BFB0F5000FEDD2B0FA80FCACF16C
:100C3000080CB2EB0C0200FA0CF0AABF00EBC25099
:100C400052421843BCBFD0401843704792F0000F87
:100C500081F4000106BF80F400000132013BB5E7DA
:100C60004FEA41037FEA226C18BF7FEA236C21D050
:100C700092EA030F04D092F0000F08BF08467047B5
:100C800090EA010F1CBF0020704712F07F4F04D183
:100C9000400028BF40F00040704712F100723CBF96
:100CA00000F50000704700F0004343F0FE4040F4C0
:100CB000000070477FEA226216BF08467FEA23637E
:100CC0000146420206BF5FEA412390EA010F40F469
:100CD000800070474FF0000304E000BF10F00043B5
:100CE00048BF40425FEA000C08BF704743F096439C
:100CF00001464FF000001CE050EA010208BF7047B7
:100D00004FF000030AE000BF50EA010208BF70473D
:100D100011F0004302D5404261EB41015FEA010C52
:100D200002BF84460146002043F0B64308BFA3F14A
:100D30008053A3F50003BCFA8CF2083AA3EBC2532C
:100D400010DB01FA02FC634400FA02FCC2F120024B
:100D5000BCF1004F20FA02F243EB020008BF20F082
:100D60000100704702F1200201FA02FCC2F12002E8
:100D700050EA4C0021FA02F243EB020008BF20EADD
:100D8000DC7070474FF0FF0C1CEAD0521EBF1CEA0B
:100D9000D15392EA0C0F93EA0C0F6FD01A4480EAF9
:100DA000010C400218BF5FEA41211ED04FF00063E2
:100DB00043EA501043EA5111A0FB01310CF000400E
:100DC000B1F5000F3EBF490041EAD3715B0040EA34
:100DD000010062F17F02FD2A1DD8B3F1004F40EB04
:100DE000C25008BF20F00100704790F0000F0CF0D7
:100DF000004C08BF49024CEA502040EA51207F3A9B
:100E0000C2BFD2F1FF0340EAC250704740F4000075
:100E10004FF00003013A5DDC12F1190FDCBF00F066
:100E200000407047C2F10002410021FA02F1C2F114
:100E3000200200FA02FC5FEA310040F1000053EAB0
:100E40004C0308BF20EADC70704792F0000F00F0FE
:100E5000004C02BF400010F4000F013AF9D040EA04
:100E60000C0093F0000F01F0004C02BF490011F498
:100E7000000F013BF9D041EA0C018FE70CEAD15396
:100E800092EA0C0F18BF93EA0C0F0AD030F0004C16
:100E900018BF31F0004CD8D180EA010000F00040CA
:100EA000704790F0000F17BF90F0004F084691F088
:100EB000000F91F0004F14D092EA0C0F01D14202C2
:100EC0000FD193EA0C0F03D14B0218BF084608D18B
:100ED00080EA010000F0004040F0FE4040F40000D5
:100EE000704740F0FE4040F4400070474FF0FF0C68
:100EF0001CEAD0521EBF1CEAD15392EA0C0F93EAAF
:100F00000C0F69D0A2EB030280EA010C49024FEA00
:100F1000402037D04FF0805343EA111143EA1013B9
:100F20000CF000408B4238BF5B0042F17D024FF471
:100F3000000C8B4224BF5B1A40EA0C00B3EB510F4C
:100F400024BFA3EB510340EA5C00B3EB910F24BF35
:100F5000A3EB910340EA9C00B3EBD10F24BFA3EBBA
:100F6000D10340EADC001B0118BF5FEA1C1CE0D182
:100F7000FD2A3FF650AF8B4240EBC25008BF20F035
:100F8000010070470CF0004C4CEA50207F32C2BF89
:100F9000D2F1FF0340EAC250704740F400004FF026
:100FA0000003013A37E792F0000F00F0004C02BF57
:100FB000400010F4000F013AF9D040EA0C0093F021
:100FC000000F01F0004C02BF490011F4000F013B7B
:100FD000F9D041EA0C0195E70CEAD15392EA0C0FE3
:100FE00008D142027FF47DAF93EA0C0F7FF470AF1B
:100FF000084676E793EA0C0F04D14B023FF44CAF5E
:1010000008466EE730F0004C18BF31F0004CCAD1F2
:1010100030F000427FF45CAF31F000437FF43CAF2E
:101020005FE700BF4FF0FF3C06E000BF4FF0010C50
:1010300002E000BF4FF0010C4DF804CD4FEA400232
:101040004FEA41037FEA226C18BF7FEA236C11D07C
:1010500001B052EA530C18BF90EA010F58BFB2EB2F
:10106000030088BFC81738BF6FEAE17018BF40F0AF
:10107000010070477FEA226C02D15FEA402C05D163
:101080007FEA236CE4D15FEA412CE1D05DF8040BE8
:10109000704700BF844608466146FFE70FB5FFF77B
:1010A000C9FF002848BF10F1000F0FBD4DF808ED33
:1010B000FFF7F4FF0CBF012000205DF808FB00BF24
:1010C0004DF808EDFFF7EAFF34BF012000205DF87E
:1010D00008FB00BF4DF808EDFFF7E0FF94BF0120CB
:1010E00000205DF808FB00BF4DF808EDFFF7D2FFC8
:1010F00094BF012000205DF808FB00BF4DF808ED0B
:10110000FFF7C8FF34BF012000205DF808FB00BFD7
:1011100042000ED2B2F1FE4F0BD34FF09E03B3EB61
:10112000126209D44FEA002343F0004323FA02F08D
:1011300070474FF00000704712F1610F01D1420279
:1011400002D14FF0FF3070474FF00000704700BFF2
:1011500038B505460C460022002328462146FFF7F5
:101160002DFC28B928462146BDE8384000F00AB8D1
:10117000284604F1004100F005F8404261EB4101CE
:1011800038BD00BFD0B500220B4B06460F46FFF717
:10119000A3F9FFF779FC0446FFF724F90022074B77
:1011A000FFF79AF902460B4630463946FEF7DCFF58
:1011B000FFF76AFC2146D0BD0000F03D0000F04181
:1011C00080B584B000AFF860B9607A603B603B687E
:1011D0007A68B968F86801F02FFE00BF1037BD4685
:1011E00080BD80B58CB000AF786039600223FB60B1
:1011F00040F212733B610023BB610023FB610823B3
:101200003B623B681B881B0A9BB2DBB287F8283025
:101210003B681B88DBB287F829303B689B7887F8EE
:101220002A30552387F82B30552387F82C30552347
:1012300087F82C30552387F82D30552387F82E302A
:10124000552387F82F3007F10C0307F1280207F127
:1012500010017868FFF7B4FF00BF3037BD4680BD8E
:1012600080B584B000AF78602021174802F0C6FC3A
:101270000821154802F0C2FC1021134802F0BEFC00
:10128000124B134A0121786801F0A5FE0346002B9A
:1012900001D000F0B1FC0E4B1B6840F2A2729342E9
:1012A0000ED10C4B01221A700B4B00221A60074B17
:1012B0009B78FB73FB7B002B02D1084B01221A7039
:1012C00000BF1037BD4680BD000C01402802002041
:1012D000300200204C020020C80400204D020020F3
:1012E00080B586B004AF01F03DFB00F03DF900F0A1
:1012F000EFFB00F0D5F900F001FA00F0C3FA00F0BE
:1013000015FB00F061FB00F0B9FB00F073F900F091
:101310002BFA814803F0B4FA804801F049FD0346F6
:10132000002B01D000F068FC10217C4801F074FF14
:1013300000F070FC4FF480430393794B02934FF419
:1013400000430193764B00930C23002275497648A5
:1013500000F0B2FC744800F00BFD00F001FF734890
:1013600005F054FD00F060FC714B1B69714A13607D
:10137000714B1B78012B04D0704B1B68B3F57A7F3F
:10138000F0D36F4B1B8801339AB26D4B1A80694BB7
:101390001B681846FFF7BCFE0346DAB2684B9A702A
:1013A000684BDB781846FFF795FC0346664A1360E6
:1013B000624B00221A60604B00221A70614B1B784E
:1013C0001B025AB25F4B5B785BB213435BB2DAB27B
:1013D0005E4B1A705B4B1B79BB715A4B5B797B710F
:1013E0005B4B1B78012B10D1524B1B685949184697
:1013F000FFF784FE0346002B03D04B4800F0E3FCCC
:1014000078E0534B00221A7074E0504B1A78524B1C
:101410001B789A4203D14E4B01221A706AE0494B65
:10142000DB781846FFF756FC0346474A1360BB7942
:10143000002B02D0012B04D00DE0484B00221A7083
:1014400009E0464B01221A703F4B1B6883F00043B2
:101450003D4A136000BF7B79022B0BD0022B0CDCC2
:10146000002B04D0012B08D10A23FB7106E0502386
:10147000FB7103E03223FB7100E000BFFB791846EB
:1014800000F098FE304B1B682A4A12681146184635
:1014900000F09EFD0346324A1360314B1B684FF04B
:1014A00000011846FFF70CFE0346002B04D02C4B1E
:1014B0001B6883F0004301E0294B1B68184600F0CD
:1014C0002FFC03461846FFF723FE0346DAB2254BEE
:1014D0001A70224B1B78012B06D1224B1B78194620
:1014E000114800F01BFD05E01E4B1B7819460E4805
:1014F00000F0BBFC0F4B1B681846FFF709FE0346C4
:10150000DAB20F4B9A70114B1A78134B1A700C49C0
:101510000248FFF766FE25E7B403002050020020D2
:10152000000C0140240300209004002040A7000884
:10153000A8040020340000204C020020C804002031
:101540000000002028020020300000208D04002030
:101550004D0200200000E0408C040020BC0400206C
:10156000C0040020BD04002080B590B000AF07F19A
:10157000180328220021184605F048FD3B1D0022D3
:101580001A605A609A60DA601A610123BB614FF4F5
:101590008033FB6100233B620123BB6202237B6338
:1015A0004FF48033BB634FF4E013FB6307F1180380
:1015B000184602F081FC0346002B01D000F01CFB12
:1015C0000F237B600223BB600023FB604FF480632A
:1015D0003B6100237B613B1D0221184602F0EEFEB9
:1015E0000346002B01D000F007FB00BF4037BD468B
:1015F00080BD000080B58AB000AF274B274A1A6033
:10160000254B04225A60244B00229A60224B4FF053
:101610008072DA60204B4FF440221A611E4B4FF467
:1016200040125A611C4B00221A761B4B00225A763C
:10163000194B00229A76184B0022DA76164B0022BC
:101640001A77154B00225A77134801F0EDF903463B
:10165000002B01D000F0D0FA01233B620C237B6108
:1016600001233B614FF240433B6000237B604FF21C
:101670004043BB600023FB600023BB610123FB618F
:101680000D237B623B461946034801F0C8FA00BFB0
:101690002837BD4680BD00BF5002002000640040D6
:1016A00080B500AF124B134A1A60114B124A5A60B0
:1016B0000F4B00229A600E4B0022DA600C4B4FF465
:1016C00080421A610A4B00225A61094B00229A613A
:1016D000074B0022DA61064B00221A62044802F02E
:1016E000A7FA0346002B01D000F086FA00BF80BDA8
:1016F0007802002000580040A086010080B500AFAD
:10170000174B184A1A60164B4FF482725A60144BEA
:1017100000229A60124B0022DA60114B00221A61FB
:101720000F4B00225A610E4B4FF400729A610C4B22
:101730000822DA610A4B00221A62094B00225A621F
:10174000074B00229A62064B0A22DA62044802F032
:10175000C3FF0346002B01D000F04EFA00BF80BD4E
:10176000CC0200200030014080B592B000AF07F1FC
:10177000400300221A605A6007F1240300221A6015
:101780005A609A60DA601A615A619A613B1D2022A0
:101790000021184605F03AFC384B394A1A60374B9D
:1017A0000F225A60354B00229A60344B6322DA6074
:1017B000324B00221A61314B00225A612F4B00221A
:1017C0009A612E4803F0AEF80346002B01D000F0DA
:1017D00013FA00233B6400237B6407F1400319469E
:1017E000264804F001F90346002B01D000F004FA6A
:1017F00060237B620023BB620023FB6200233B6308
:1018000000237B630023BB630023FB6307F12403F6
:1018100000221946194803F09FFC0346002B01D013
:1018200000F0EAF907F124030C221946134803F0EB
:1018300093FC0346002B01D000F0DEF900237B600F
:101840000023BB600023FB6000233B6100237B611E
:101850004FF40053BB6100233B623B1D1946074810
:1018600004F020F90346002B01D000F0C5F903482D
:1018700000F06AFE00BF4837BD4680BD240300204B
:10188000002C014080B58CB000AF07F10C0324227E
:101890000021184605F0BAFB3B1D00221A605A6071
:1018A000214B4FF080421A601F4B00225A601E4BA2
:1018B00000229A601C4B4FF6FF72DA601A4B00222E
:1018C0001A61194B00229A610123FB6000233B61DE
:1018D00001237B610023BB610023FB6100233B628A
:1018E00001237B620023BB620023FB6207F10C0330
:1018F00019460D4803F0F8F90346002B01D000F01B
:101900007BF900237B600023BB603B1D1946064822
:1019100004F06AF80346002B01D000F06DF900BF17
:101920003037BD4680BD00BF6C03002080B586B057
:1019300000AF07F1080300221A605A609A60DA606B
:101940003B4600221A605A601D4B1E4A1A601C4B0F
:1019500048F69F425A601A4B00229A60184BC722E1
:10196000DA60174B00221A61154B00229A61144865
:1019700002F036FF0346002B01D000F03DF94FF492
:101980008053BB6007F1080319460D4803F0A6FC1D
:101990000346002B01D000F02FF900233B60002309
:1019A0007B603B461946064804F01EF80346002BB0
:1019B00001D000F021F900BF1837BD4680BD00BF3F
:1019C000B40300200004004080B58AB000AF07F1E6
:1019D000200300221A605A603B1D00221A605A60E0
:1019E0009A60DA601A615A619A61224B224A1A603F
:1019F000204B40F2CF225A601E4B00229A601D4BB2
:101A000040F2CF72DA601B4B00221A61194B0022A0
:101A10009A61184802F086FF0346002B01D000F0BF
:101A2000EBF800233B6200237B6207F12003194699
:101A3000104803F0D9FF0346002B01D000F0DCF87A
:101A400060237B600023BB600023FB6000237B617D
:101A50003B1D00221946074803F07EFB0346002B7E
:101A600001D000F0C9F8034800F06EFD00BF283730
:101A7000BD4680BDFC0300200008004080B500AFDB
:101A8000114B124A1A60104B4FF4E1325A600E4B60
:101A900000229A600C4B0022DA600B4B00221A6184
:101AA000094B0C225A61084B00229A61064B002216
:101AB000DA61054804F059F80346002B01D000F024
:101AC0009BF800BF80BD00BF4404002000380140E7
:101AD00080B588B000AF07F1100300221A605A6089
:101AE0009A60DA60404B9B693F4A43F01003936170
:101AF0003D4B9B6903F01003FB60FB683A4B9B690D
:101B0000394A43F020039361374B9B6903F020036C
:101B1000BB60BB68344B9B69334A43F00403936159
:101B2000314B9B6903F004037B607B682E4B9B6900
:101B30002D4A43F0080393612B4B9B6903F0080384
:101B40003B603B6800224FF40051284802F03EF809
:101B500000221021264802F039F800224FF44041BB
:101B6000244802F033F801223821224802F02EF8EE
:101B70004FF400533B6101237B610123BB610223CE
:101B8000FB6107F110031946184801F09BFE102372
:101B90003B6101237B610023BB610223FB6107F1F1
:101BA00010031946124801F08DFE03233B61002308
:101BB0007B610023BB6107F1100319460D4801F05A
:101BC00081FE4CF238033B6101237B610023BB6142
:101BD0000223FB6107F110031946064801F072FE6B
:101BE00000BF2037BD4680BD0010024000100140FC
:101BF00000080140000C014080B400AF72B600BF85
:101C0000FEE780B483B000AF786000BF0C37BD46FC
:101C100080BC704780B500AF3C21024803F006F954
:101C200000BF80BD6C03002080B500AF1D4B9B68DA
:101C3000632B35DD1C4B1B685B6A1AB2194B1A808B
:101C4000184BB3F902301A46164BB3F90030D21ACA
:101C500013469B0013445B001846FFF73FF803460A
:101C600012491846FFF742F903461A460D4BDA604F
:101C70000C4BDB680E491846FFF784F803460D4904
:101C80001846FFF733F9034683F00043054A136112
:101C9000044BB3F90020034B5A80024B00229A6098
:101CA00000BF80BDA80400206C03002000C0F844E1
:101CB000DD7EBC413333334080B485B000AFF86083
:101CC000B96011461A460B46FB801346BB80FB6881
:101CD000BA681A60FB68FA889A80FB68BA88DA806A
:101CE000FB68BA699A60FB68BA8B9A81FB683A6AAA
:101CF0001A61FB68BA8C9A8200BF1437BD4680BC5B
:101D0000704780B483B000AF0346FB71FB79642B4E
:101D100028BF6423DBB218460C37BD4680BC704731
:101D200090B583B000AF78600E497868FFF72AF865
:101D3000034679681846FFF725F803461C460A490A
:101D40007868FFF71FF8034619462046FEF712FF92
:101D5000034606491846FEF70DFF034618460C37A2
:101D6000BD4690BD24973F3E79E9E63E60E52B42B3
:101D700080B582B000AF78607B680122DA827B6830
:101D800098687B689B890122194601F01FFF7B68D8
:101D900018697B689B8A0122194601F017FF7B684E
:101DA0001A687B689B881946104602F0ADFE7B6876
:101DB0001A687B68DB881946104602F0A5FE00BF52
:101DC0000837BD4680BD80B483B000AF78607B68C3
:101DD0000022DA827B689B88002B05D17B681B6818
:101DE0001B6801225A6318E07B689B88042B05D18D
:101DF0007B681B681A68012393630EE07B689B88ED
:101E0000082B05D17B681B681A680123D36304E0A3
:101E10007B681B681A68012313647B68DB88002BCE
:101E200005D17B681B681B6801225A6318E07B6838
:101E3000DB88042B05D17B681B681A680123936338
:101E40000EE07B68DB88082B05D17B681B681A686D
:101E50000123D36304E07B681B681A6801231364C1
:101E600000BF0C37BD4680BC704780B582B000AF64
:101E700078600B46FB707B680222DA82FB7818469A
:101E8000FFF73FFF0346FB707B689B88002B05D163
:101E90007B681B681B6800225A6318E07B689B887C
:101EA000042B05D17B681B681A68002393630EE03E
:101EB0007B689B88082B05D17B681B681A68002308
:101EC000D36304E07B681B681A68002313647B6893
:101ED000DB88002B05D17B681B681B68FA785A6386
:101EE00018E07B68DB88042B05D17B681B681A68C7
:101EF000FB7893630EE07B68DB88082B05D17B6859
:101F00001B681A68FB78D36304E07B681B681A6857
:101F1000FB78136400BF0837BD4680BD80B582B032
:101F200000AF78600B46FB70FB781846FFF7E9FEC0
:101F30000346FB707B680322DA827B689B88002B58
:101F400005D17B681B681B68FA785A6318E07B68C8
:101F50009B88042B05D17B681B681A68FB78936308
:101F60000EE07B689B88082B05D17B681B681A688C
:101F7000FB78D36304E07B681B681A68FB78136402
:101F80007B68DB88002B05D17B681B681B680022FF
:101F90005A6318E07B68DB88042B05D17B681B68DB
:101FA0001A68002393630EE07B68DB88082B05D159
:101FB0007B681B681A680023D36304E07B681B6896
:101FC0001A680023136400BF0837BD4680BD0000B7
:101FD000B0B582B000AF786039605B4B9B6A632B11
:101FE00040F3AC8039687868FEF7C2FD03461A46B4
:101FF000554B5A6100F00EFD03461846FEF76AFE87
:102000000346514A9361504B9B694F4AD26911462E
:102010001846FEF7ADFD03464C491846FEF766FF2D
:1020200003461A46484B1A62474B9B69464AD3619E
:10203000454BDB68444A526911461846FEF79AFD43
:1020400003461A46404BDA603F4BDB68404918466E
:10205000FFF754F80346002B03D03B4B3C4ADA60B1
:102060000BE0394BDB683B491846FFF729F803467C
:10207000002B02D0344B374ADA60334B1B68324AAC
:10208000526911461846FEF77DFE03461C462E4B4C
:102090005B682D4AD26811461846FEF773FE034668
:1020A0001A46294B1B6A19461046FEF76BFE03467B
:1020B00019462046FEF75EFD03461D46224B9C68EE
:1020C000214B5B69204A126911461846FEF750FD04
:1020D000034619462046FEF755FE03461A461A4B9C
:1020E0001B6A19461046FEF701FF034619462846AB
:1020F000FEF740FD03461A46134B5A62124B5B6AC9
:1021000015491846FEF7FAFF0346002B03D00E4B85
:10211000114A5A620BE00C4B5B6A10491846FEF7F5
:10212000CFFF0346002B02D0074B0C4A5A62064BE6
:102130005B69054A1361044B00229A62024B5B6A99
:1021400018460837BD46B0BD0400002000007A44A0
:1021500000002041000020C10000A0410000A0C1FB
:1021600080B500AF0021024802F02CFC00BF80BD0A
:10217000FC03002080B483B000AF0346FB71FB7901
:102180005A2B0ED8FB79C82202FB03F3084A82FBC4
:1021900003121A449211DB17D31ADBB23133DBB2CC
:1021A00000E0F92318460C37BD4680BC704700BFDD
:1021B000B7600BB680B582B000AF0346FB71FB7908
:1021C0005A2B01D95A23FB71FB791846FFF7D2FF2E
:1021D00003461A46034B1B685A6300BF0837BD46C7
:1021E00080BD00BFFC03002080B483B000AF0E4B65
:1021F0009B690D4A43F0010393610B4B9B6903F00C
:1022000001037B607B68084BDB69074A43F080531E
:10221000D361054BDB6903F080533B603B6800BF33
:102220000C37BD4680BC70470010024080B58AB0B4
:1022300000AF786007F1140300221A605A609A60B8
:10224000DA607B681B68294A93424BD1284BDB69D3
:10225000274A43F00073D361254BDB6903F0007319
:102260003B613B69224B9B69214A43F00803936120
:102270001F4B9B6903F00803FB60FB684FF48073FE
:102280007B610023BB610023FB6107F11403194646
:10229000184801F017FB4FF400737B610223BB6108
:1022A00003233B6207F114031946124801F00AFBAD
:1022B000114B5B687B627B6A23F4C0437B627B6A61
:1022C00043F0E0637B627B6A43F480437B620A4AAB
:1022D0007B6A536000220021152001F0BCFA152012
:1022E00001F0D5FA00BF2837BD4680BD006400402C
:1022F00000100240000C01400000014080B588B091
:1023000000AF786007F1100300221A605A609A60EB
:10231000DA607B681B68164A934224D1154B9B698F
:10232000144A43F008039361124B9B6903F00803BE
:10233000FB60FB684FF440633B6112237B61032326
:10234000FB6107F1100319460B4801F0BBFA094B7A
:10235000DB69084A43F48003D361064BDB6903F46D
:102360008003BB60BB6800BF2037BD4680BD00BF97
:102370000058004000100240000C014080B588B0B9
:1023800000AF786007F1100300221A605A609A606B
:10239000DA607B681B681B4A93422FD11A4B9B69FA
:1023A000194A43F480539361174B9B6903F480539C
:1023B000FB60FB68144B9B69134A43F00403936171
:1023C000114B9B6903F00403BB60BB68A0233B6116
:1023D00002237B610323FB6107F1100319460B48BD
:1023E00001F070FA40233B6100237B610023BB6155
:1023F00007F110031946054801F064FA00BF2037C1
:10240000BD4680BD00300140001002400008014080
:1024100080B485B000AF78607B681B68124A934235
:102420000CD1124B9B69114A43F4006393610F4B2B
:102430009B6903F40063FB60FB6810E07B681B682A
:102440000B4A93420BD1094BDB69084A43F0040362
:10245000D361064BDB6903F00403BB60BB6800BFBC
:102460001437BD4680BC7047002C0140001002406C
:102470000008004080B588B000AF786007F1100315
:1024800000221A605A609A60DA607B681B68B3F1B8
:10249000804F2BD1174BDB69164A43F00103D36100
:1024A000144BDB6903F00103FB60FB68114B9B6974
:1024B000104A43F0040393610E4B9B6903F004033D
:1024C000BB60BB6803233B6100237B610023BB61CE
:1024D00007F110031946084801F0F4F90022002121
:1024E0001C2001F0B8F91C2001F0D1F900BF203701
:1024F000BD4680BD001002400008014080B584B098
:1025000000AF78607B681B680D4A934213D10D4B76
:10251000DB690C4A43F00203D3610A4BDB6903F029
:102520000203FB60FB68002200211D2001F093F9EB
:102530001D2001F0ACF900BF1037BD4680BD00BFC3
:10254000000400400010024080B588B000AF786001
:1025500007F1100300221A605A609A60DA607B6803
:102560001B681F4A934219D11E4B9B691D4A43F0B9
:10257000040393611B4B9B6903F00403FB60FB683E
:102580004FF410633B6102237B610223FB6107F17F
:1025900010031946144801F095F91CE07B681B688C
:1025A000124A934217D10F4B9B690E4A43F008031E
:1025B00093610C4B9B6903F00803BB60BB6840232D
:1025C0003B6102237B610223FB6107F11003194683
:1025D000074801F077F900BF2037BD4680BD00BF36
:1025E000002C01400010024000080140000800409B
:1025F000000C014080B588B000AF786007F110038F
:1026000000221A605A609A60DA607B681B681C4A74
:10261000934231D11B4B9B691A4A43F48043936127
:10262000184B9B6903F48043FB60FB68154B9B6967
:10263000144A43F004039361124B9B6903F00403B3
:10264000BB60BB684FF400733B6102237B610323D3
:10265000FB6107F1100319460B4801F033F94FF401
:1026600080633B6100237B610023BB6107F11003A2
:102670001946054801F026F900BF2037BD4680BD48
:1026800000380140001002400008014080B400AF53
:10269000FEE780B400AFFEE780B400AFFEE780B491
:1026A00000AFFEE780B400AFFEE780B400AF00BF2C
:1026B000BD4680BC704780B400AF00BFBD4680BC43
:1026C000704780B400AF00BFBD4680BC70470000BB
:1026D00080B500AF00F08CF9054B9B680133044ACC
:1026E0009360044B9B6A0133024A936200BF80BD32
:1026F000A80400200400002080B500AF024800F0CC
:10270000B0FD00BF80BD00BF5002002080B500AF0B
:10271000024802F019FC00BF80BD00BF6C0300201E
:1027200080B500AF024802F00FFC00BF80BD00BFC3
:10273000B403002080B400AF01231846BD4680BC1E
:10274000704780B582B000AF7860396004F0B0FCAB
:10275000034616221A604FF0FF3318460837BD466D
:1027600080BD80B582B000AF78604FF0FF317868EF
:10277000FFF7E7FFFEE780B586B000AFF860B9600D
:102780007A6000237B610AE0AFF300800146BB68FA
:102790005A1CBA60CAB21A707B6901337B617A69CC
:1027A0007B689A42F0DB7B6818461837BD4680BDCF
:1027B00080B586B000AFF860B9607A6000237B61B5
:1027C00009E0BB685A1CBA601B78184600F092F802
:1027D0007B6901337B617A697B689A42F1DB7B68B4
:1027E00018461837BD4680BD80B483B000AF78600E
:1027F0004FF0FF3318460C37BD4680BC704780B49D
:1028000083B000AF786039603B684FF400525A6083
:10281000002318460C37BD4680BC704780B483B097
:1028200000AF7860012318460C37BD4680BC704766
:1028300080B485B000AFF860B9607A6000231846B4
:102840001437BD4680BC704780B586B000AF786055
:10285000144A154BD31A7B617B693B61134B1B6890
:10286000002B02D1114B124A1A60104B1A687B6878
:1028700013443A699A4207D204F01AFC03460C2228
:102880001A604FF0FF3309E0084B1B68FB60074BF1
:102890001A687B681344054A1360FB6818461837AA
:1028A000BD4680BD0050002000040000C40400208C
:1028B0002006002080B400AF00BFBD4680BC70473A
:1028C00080B483B000AF78607B681A68074B1B68E0
:1028D0009A4205D1064B1B686433054A136000E039
:1028E00000BF00BF0C37BD4680BC7047B40300205A
:1028F000C804002080B582B000AF7860391D4FF069
:10290000FF330122034803F080F97B68184608373B
:10291000BD4680BD44040020FFF7CCFF0B480C49A6
:102920000C4A002302E0D458C4500433C4188C422B
:10293000F9D3094A094C002301E013600432A24292
:10294000FBD304F0BBFBFEF7CBFC7047000000207C
:102950000C020020ACAB00080C0200201C0600207A
:10296000FEE7000080B500AF084B1B68074A43F044
:1029700010031360032000F063FF0F2000F008F83D
:10298000FFF732FC0023184680BD00BF0020024044
:1029900080B582B000AF7860124B1A68124B1B787A
:1029A00019464FF47A73B3FBF1F3B2FBF3F3184615
:1029B00000F07BFF0346002B01D001230EE07B6873
:1029C0000F2B0AD8002279684FF0FF3000F043FF48
:1029D000064A7B681360002300E00123184608378D
:1029E000BD4680BD38000020400000203C00002093
:1029F00080B400AF054B1B781A46054B1B68134487
:102A0000034A136000BFBD4680BC704740000020F1
:102A1000CC04002080B400AF024B1B681846BD46B2
:102A200080BC7047CC04002080B584B000AF7860D3
:102A30007B68002B01D10123EDE07B6893F8203007
:102A4000DBB2002B02D17868FFF7F0FB7B681B68D4
:102A50001A687B681B6842F001021A60FFF7DAFF10
:102A6000F86012E0FFF7D6FF0246FB68D31A0A2B84
:102A70000BD97B685B6A43F400327B685A627B68DF
:102A8000052283F820200123C5E07B681B685B6872
:102A900003F00103002BE5D07B681B681A687B6894
:102AA0001B6822F002021A60FFF7B4FFF86012E020
:102AB000FFF7B0FF0246FB68D31A0A2B0BD97B68DD
:102AC0005B6A43F400327B685A627B68052283F8B4
:102AD000202001239FE07B681B685B6803F00203F2
:102AE000002BE5D17B681B7E012B08D17B681B681E
:102AF0001A687B681B6842F080021A6007E07B68F6
:102B00001B681A687B681B6822F080021A607B6869
:102B10005B7E012B08D17B681B681A687B681B6889
:102B200042F040021A6007E07B681B681A687B6805
:102B30001B6822F040021A607B689B7E012B08D143
:102B40007B681B681A687B681B6842F020021A6069
:102B500007E07B681B681A687B681B6822F020020C
:102B60001A607B68DB7E012B08D17B681B681A68C2
:102B70007B681B6822F010021A6007E07B681B6804
:102B80001A687B681B6842F010021A607B681B7F22
:102B9000012B08D17B681B681A687B681B6842F0B0
:102BA00008021A6007E07B681B681A687B681B686C
:102BB00022F008021A607B685B7F012B08D17B68DA
:102BC0001B681A687B681B6842F004021A6007E001
:102BD0007B681B681A687B681B6822F004021A6015
:102BE0007B689A687B68DB681A437B681B691A43B9
:102BF0007B685B6942EA03017B685B685A1E7B68FD
:102C00001B680A43DA617B6800225A627B680122F2
:102C100083F82020002318461037BD4680BD80B4BD
:102C200087B000AF786039607B681B687B617B6828
:102C300093F82030FB74FB7C012B03D0FB7C022B30
:102C400040F0AA807B69D3F8003243F001027B692F
:102C5000C3F800223B685B6903F01F03012202FAFC
:102C600003F3FB607B69D3F81C22FB68DB431A404B
:102C70007B69C3F81C223B68DB69002B23D17B698D
:102C8000D3F80C22FB68DB431A407B69C3F80C22A3
:102C90003B68DB6819043B685B689BB23A68526921
:102CA00019437B69483243F832103B689B6819042A
:102CB0003B681B689AB23B685B690A437969483391
:102CC000DB000B445A603B68DB69012B22D17B6936
:102CD000D3F80C22FB681A437B69C3F80C223B68CB
:102CE0001B6819043B685B689BB23A6852691943D8
:102CF0007B69483243F832103B689B6819043B6893
:102D0000DB689AB23B685B690A4379694833DB0048
:102D10000B445A603B689B69002B09D17B69D3F84F
:102D20000422FB68DB431A407B69C3F8042207E0F6
:102D30007B69D3F80422FB681A437B69C3F8042239
:102D40003B681B69002B09D17B69D3F81422FB680F
:102D5000DB431A407B69C3F8142207E07B69D3F890
:102D60001422FB681A437B69C3F814223B681B6A70
:102D7000012B07D17B69D3F81C22FB681A437B69BE
:102D8000C3F81C227B69D3F8003223F001027B696F
:102D9000C3F80022002306E07B685B6A43F48022CC
:102DA0007B685A62012318461C37BD4680BC7047B9
:102DB00080B584B000AF78607B6893F82030DBB2D8
:102DC000012B2ED17B68022283F820207B681B68B0
:102DD0001A687B681B6822F001021A60FFF71AFE6E
:102DE000F86012E0FFF716FE0246FB68D31A0A2BC2
:102DF0000BD97B685B6A43F400327B685A627B685C
:102E0000052283F82020012312E07B681B685B68A1
:102E100003F00103002BE5D17B6800225A620023F6
:102E200006E07B685B6A43F400227B685A620123F8
:102E300018461037BD4680BD80B489B000AFF86039
:102E4000B9607A603B60FB6893F82030FB77FB68E1
:102E50001B689B68BB61FB7F012B03D0FB7F022BB0
:102E600040F0AD80BB6903F08063002B0AD1BB69E1
:102E700003F00063002B05D1BB6903F08053002BE6
:102E800000F09580BB691B0E03F003037B610122F8
:102E90007B699A403B681A60BB689B68002B0DD128
:102EA000BB681B685A05BB68DB68F96809681A4388
:102EB0007B6918331B010B441A600FE0BB685B6829
:102EC000DA00BB689B681A43BB68DB68F96809686D
:102ED0001A437B6918331B010B441A60FB6819689D
:102EE000BB681A697B6918331B010B4404331A60F1
:102EF000BB681B7D012B11D1FB681A687B691833F5
:102F00001B01134404331B68FA68116843F4807290
:102F10007B6918331B010B4404331A607B68073349
:102F20001B781A067B6806331B781B041A437B68E0
:102F300005331B781B0213437A680432127810465B
:102F4000FA68116843EA00027B691B010B4403F530
:102F5000C6731A607B6803331B781A067B680233DA
:102F60001B781B041A437B6801331B781B02134335
:102F70007A6812781046FA68116843EA00027B69A1
:102F80001B010B4403F5C4731A60FB681A687B6964
:102F900018331B0113441B68FA68116843F00102DF
:102FA0007B6918331B010B441A6000230EE0FB6899
:102FB0005B6A43F40012FB685A62012306E0FB6877
:102FC0005B6A43F48022FB685A6201231846243767
:102FD000BD4680BC704780B487B000AFF860B96070
:102FE0007A603B60FB6893F82030FB75FB7D012B1A
:102FF00003D0FB7D022B40F00381BB68002B0ED178
:10300000FB681B68DB6803F00303002B16D1FB6829
:103010005B6A43F40012FB685A620123F7E0FB6825
:103020001B681B6903F00303002B07D1FB685B6A75
:1030300043F40012FB685A620123E8E0FB681A6857
:10304000BB681B331B0113441B6803F004027B683D
:103050009A607B689B68002B0CD1FB681A68BB6880
:103060001B331B0113441B685B0DC3F30A027B680F
:103070001A600BE0FB681A68BB681B331B01134422
:103080001B68DB0823F060427B685A60FB681A68A3
:10309000BB681B331B0113441B6803F002027B68EF
:1030A000DA60FB681A68BB681B331B0113440433E6
:1030B0001B6803F00803002B03D07B6808221A6109
:1030C0000BE0FB681A68BB681B331B011344043315
:1030D0001B6803F00F027B681A61FB681A68BB6803
:1030E0001B331B01134404331B681B0ADAB27B68D1
:1030F0009A61FB681A68BB681B331B0113440433D5
:103100001B681B0C9AB27B685A61FB681A68BB6823
:103110001B01134403F5DC731B68DAB23B681A70B9
:10312000FB681A68BB681B01134403F5DC731B685A
:103130001A0A3B680133D2B21A70FB681A68BB687E
:103140001B01134403F5DC731B681A0C3B68023344
:10315000D2B21A70FB681A68BB681B01134403F5EE
:10316000DC731B681A0E3B680333D2B21A70FB681B
:103170001A68BB681B01134403F5DE731A683B68C9
:103180000433D2B21A70FB681A68BB681B0113447F
:1031900003F5DE731B681A0A3B680533D2B21A7056
:1031A000FB681A68BB681B01134403F5DE731B68D8
:1031B0001A0C3B680633D2B21A70FB681A68BB68F7
:1031C0001B01134403F5DE731B681A0E3B680733BB
:1031D000D2B21A70BB68002B08D1FB681B68DA6892
:1031E000FB681B6842F02002DA6007E0FB681B689E
:1031F0001A69FB681B6842F020021A61002306E08E
:10320000FB685B6A43F48022FB685A62012318461C
:103210001C37BD4680BC704780B485B000AF786075
:1032200039607B6893F82030FB73FB7B012B02D065
:10323000FB7B022B09D17B681B6859697B681B6883
:103240003A680A435A61002306E07B685B6A43F4EC
:1032500080227B685A62012318461437BD4680BC21
:10326000704780B58AB000AF786000237B627B68CE
:103270001B685B693B627B681B685B68FB617B6802
:103280001B689B68BB617B681B68DB687B617B6834
:103290001B681B693B617B681B689B69FB603B6A21
:1032A00003F00103002B7CD0BB6903F00103002B6A
:1032B00023D07B681B6801229A60BB6903F002037C
:1032C000002B03D0786800F083F916E0BB6903F0A7
:1032D0000403002B04D07B6A43F400637B620CE0A0
:1032E000BB6903F00803002B04D07B6A43F48053CE
:1032F0007B6202E0786800F086F9BB6903F48073B2
:10330000002B24D07B681B684FF480729A60BB69E5
:1033100003F40073002B03D0786800F062F916E024
:10332000BB6903F48063002B04D07B6A43F4005331
:103330007B620CE0BB6903F40063002B04D07B6A62
:1033400043F480437B6202E0786800F065F9BB6972
:1033500003F48033002B24D07B681B684FF4803249
:103360009A60BB6903F40033002B03D0786800F047
:1033700041F916E0BB6903F48023002B04D07B6A7B
:1033800043F400437B620CE0BB6903F40023002B91
:1033900004D07B6A43F480337B6202E0786800F0FB
:1033A00044F93B6A03F00803002B0CD07B6903F05F
:1033B0001003002B07D07B6A43F400737B627B68A9
:1033C0001B681022DA603B6A03F00403002B0BD069
:1033D0007B6903F00803002B06D07B681B6808227A
:1033E000DA60786800F033F93B6A03F00203002BDF
:1033F00009D07B681B68DB6803F00303002B02D055
:10340000786800F01BF93B6A03F04003002B0CD0F6
:103410003B6903F01003002B07D07B6A43F4806301
:103420007B627B681B6810221A613B6A03F02003F1
:10343000002B0BD03B6903F00803002B06D07B6800
:103440001B6808221A61786800F00AF93B6A03F0E9
:103450001003002B09D07B681B681B6903F0030372
:10346000002B02D07868FDF7FBFE3B6A03F40033C3
:10347000002B0BD0FB6903F01003002B06D07B68F8
:103480001B6810225A60786800F0F3F83B6A03F476
:103490008033002B0BD0FB6903F00803002B06D010
:1034A0007B681B6808225A60786800F0EBF83B6A7A
:1034B00003F40043002B7BD0FB6903F00403002BD3
:1034C00072D03B6A03F48073002B08D0FB6803F0D2
:1034D0000103002B03D07B6A43F001037B623B6A4C
:1034E00003F40073002B08D0FB6803F00203002BE9
:1034F00003D07B6A43F002037B623B6A03F4806380
:10350000002B08D0FB6803F00403002B03D07B6A78
:1035100043F004037B623B6A03F40063002B43D057
:10352000FB6803F07003002B3ED0FB6803F07003D0
:10353000602B2BD0602B2ED8502B22D0502B2AD88A
:10354000402B19D0402B26D8302B10D0302B22D82E
:10355000102B02D0202B05D01DE07B6A43F008031E
:103560007B6219E07B6A43F010037B6214E07B6AA4
:1035700043F020037B620FE07B6A43F040037B62F1
:103580000AE07B6A43F080037B6205E07B6A43F4D8
:1035900080737B6200E000BF7B681B689A697B6870
:1035A0001B6822F070029A617B681B6804225A60D3
:1035B0007B6A002B08D07B685A6A7B6A1A437B6857
:1035C0005A62786800F067F800BF2837BD4680BDB2
:1035D00080B483B000AF786000BF0C37BD4680BCBC
:1035E000704780B483B000AF786000BF0C37BD4631
:1035F00080BC704780B483B000AF786000BF0C37E8
:10360000BD4680BC704780B483B000AF786000BF17
:103610000C37BD4680BC704780B483B000AF786083
:1036200000BF0C37BD4680BC704780B483B000AF8C
:10363000786000BF0C37BD4680BC704780B483B053
:1036400000AF786000BF0C37BD4680BC704780B4C7
:1036500083B000AF786000BF0C37BD4680BC7047B8
:1036600080B483B000AF786000BF0C37BD4680BC2B
:10367000704780B483B000AF786000BF0C37BD46A0
:1036800080BC704780B483B000AF786000BF0C3757
:10369000BD4680BC704780B483B000AF786000BF87
:1036A0000C37BD4680BC704780B485B000AF7860F1
:1036B0007B6803F00703FB600C4BDB68BB60BA68F8
:1036C0004FF6FF031340BB60FB681A02BB6813434D
:1036D00043F0BF6343F40033BB60044ABB68D3606C
:1036E00000BF1437BD4680BC704700BF00ED00E04E
:1036F00080B400AF044BDB681B0A03F007031846D5
:10370000BD4680BC704700BF00ED00E080B483B0D0
:1037100000AF0346FB7197F90730002B0BDBFB79F9
:1037200003F01F02064997F907305B09012000FAF0
:1037300002F241F8232000BF0C37BD4680BC704721
:1037400000E100E080B483B000AF03463960FB7154
:1037500097F90730002B0ADB3B68DAB20C4997F97E
:1037600007301201D2B20B4483F800230AE03B6811
:10377000DAB20849FB7903F00F03043B1201D2B21D
:103780000B441A7600BF0C37BD4680BC704700BFA3
:1037900000E100E000ED00E080B489B000AFF86027
:1037A000B9607A60FB6803F00703FB61FB69C3F152
:1037B0000703042B28BF0423BB61FB690433062BDA
:1037C00002D9FB69033B00E000237B614FF0FF322D
:1037D000BB6902FA03F3DA43BB681A407B699A407B
:1037E0004FF0FF317B6901FA03F3D9437B680B404B
:1037F000134318462437BD4680BC704780B582B05D
:1038000000AF78607B68013BB3F1807F01D3012377
:103810000FE00A4A7B68013B53600F214FF0FF30F5
:10382000FFF790FF054B00229A60044B07221A60B5
:10383000002318460837BD4680BD00BF10E000E0F9
:1038400080B582B000AF78607868FFF72DFF00BFC9
:103850000837BD4680BD80B586B000AF0346B9606D
:103860007A60FB7300237B61FFF742FF78617A681F
:10387000B9687869FFF790FF024697F90F30114653
:103880001846FFF75FFF00BF1837BD4680BD80B503
:1038900082B000AF0346FB7197F907301846FFF777
:1038A00035FF00BF0837BD4680BD80B582B000AF90
:1038B00078607868FFF7A2FF034618460837BD46D0
:1038C00080BD000080B48BB000AF78603960002309
:1038D0007B6200233B6269E101227B6A02FA03F307
:1038E000FB613B681B68FA691340BB61BA69FB69FD
:1038F0009A4240F058813B685B689A4A93425ED096
:10390000984A934275D8984A934258D0964A93421F
:103910006FD8964A934252D0944A934269D8944AB7
:1039200093424CD0924A934263D8924A934246D0F3
:10393000904A93425DD8122B2AD8122B59D801A253
:1039400052F823F0BF39000899390008AB39000854
:10395000ED390008F3390008F3390008F33900089D
:10396000F3390008F3390008F3390008F339000887
:10397000F3390008F3390008F3390008F339000877
:10398000F3390008F3390008A1390008B5390008F7
:10399000794A934213D02CE03B68DB683B6229E014
:1039A0003B68DB6804333B6224E03B68DB68083338
:1039B0003B621FE03B68DB680C333B621AE03B680C
:1039C0009B68002B02D104233B6213E03B689B6899
:1039D000012B05D108233B627B68FA691A6109E073
:1039E00008233B627B68FA695A6103E000233B626B
:1039F00000E000BFBB69FF2B01D87B6801E07B685A
:103A000004337B61BB69FF2B02D87B6A9B0002E019
:103A10007B6A083B9B003B617B691A680F213B690D
:103A200001FA03F3DB431A40396A3B6901FA03F3F5
:103A30001A437B691A603B685B6803F08053002B74
:103A400000F0B1804D4B9B694C4A43F001039361F8
:103A50004A4B9B6903F00103BB60BB68484A7B6A21
:103A60009B08023352F82330FB607B6A03F00303A8
:103A70009B000F2202FA03F3DB43FA681340FB605A
:103A80007B68404A934213D07B683F4A93420DD0F3
:103A90007B683E4A934207D07B683D4A934201D1FE
:103AA000032306E0042304E0022302E0012300E0F4
:103AB00000237A6A02F0030292009340FA681343EB
:103AC000FB602F497B6A9B080233FA6841F8232088
:103AD0003B685B6803F48013002B06D02D4B9A687B
:103AE0002C49BB6913438B6006E02A4B9A68BB697B
:103AF000DB43284913408B603B685B6803F4001389
:103B0000002B06D0234BDA682249BB691343CB60F4
:103B100006E0204BDA68BB69DB431E491340CB60EB
:103B20003B685B6803F40033002B06D0194B5A68DE
:103B30001849BB6913434B6006E0164B5A68BB69D2
:103B4000DB43144913404B603B685B6803F48033EC
:103B5000002B21D00F4B1A680E49BB6913430B6031
:103B600021E000BF000032100000311000002210E0
:103B7000000021100000121000001110001002407F
:103B80000000014000080140000C0140001001400D
:103B900000140140000401400B4B1A68BB69DB4371
:103BA000094913400B607B6A01337B623B681A68EA
:103BB0007B6A22FA03F3002B7FF48EAE00BF00BFB6
:103BC0002C37BD4680BC70470004014080B483B0F0
:103BD00000AF78600B467B8013467B707B78002BB0
:103BE00003D07A887B681A6103E07B881A047B68BB
:103BF0001A6100BF0C37BD4680BC704780B485B0E9
:103C000000AF78600B467B807B68DB68FB607A885E
:103C1000FB6813401A04FB68D9437B880B401A43A6
:103C20007B681A6100BF1437BD4680BC7047000036
:103C300080B584B000AF78607B68002B01D1012390
:103C40002BE17B6893F83D30DBB2002B06D17B681B
:103C5000002283F83C207868FEF750FB7B68242222
:103C600083F83D207B681B681A687B681B6822F01C
:103C700001021A607B681B681A687B681B6842F443
:103C800000421A607B681B681A687B681B6822F414
:103C900000421A6000F0DAFCF8607B685B68814AD9
:103CA000934207D8FB68804A934294BF01230023C4
:103CB000DBB206E0FB687D4A934294BF01230023F8
:103CC000DBB2002B01D00123E7E0FB68784AA2FBBE
:103CD00003239B0CBB607B681B685B6823F03F0180
:103CE0007B681B68BA680A435A607B681B681B6A5A
:103CF00023F03F017B685B686A4A934202D8BB6845
:103D0000013309E0BB684FF4967202FB03F3694A82
:103D1000A2FB03239B0901337A6812680B431362E9
:103D20007B681B68DB6923F44F4222F0FF027B684B
:103D30005B685C498B4219D8FB68591E7B685B68DD
:103D40005B00B1FBF3F3591C40F6FC730B40002BF6
:103D50000AD0FB68591E7B685B685B00B1FBF3F31C
:103D60000133C3F30B0351E004234FE07B689B68EE
:103D7000002B11D1FB68581E7B6859680B465B000D
:103D80000B44B0FBF3F30133C3F30B03002B0CBF65
:103D900001230023DBB212E0FB68581E7B685968E0
:103DA0000B469B000B4499000B44B0FBF3F301332B
:103DB000C3F30B03002B0CBF01230023DBB2002B4A
:103DC00001D0012322E07B689B68002B0ED1FB68A9
:103DD000581E7B6859680B465B000B44B0FBF3F33D
:103DE0000133C3F30B0343F400430FE0FB68581E99
:103DF0007B6859680B469B000B4499000B44B0FB51
:103E0000F3F30133C3F30B0343F4404379680968C8
:103E10001343CB617B681B681B6823F0C0017B6880
:103E2000DA697B681B6A1A437B681B680A431A605D
:103E30007B681B689B6823F4034323F0FF037A68C5
:103E400011697A68D26811437A6812680B439360EB
:103E50007B681B68DB6823F0FF017B685A697B681D
:103E60009B691A437B681B680A43DA607B681B689E
:103E70001A687B681B6842F001021A607B680022A6
:103E80001A647B68202283F83D207B6800221A6335
:103E90007B68002283F83E20002318461037BD4679
:103EA00080BD00BFA08601007F841E00FF083D008A
:103EB00083DE1B43D34D621080B586B000AF7860BF
:103EC0007B68002B01D1012372E27B681B6803F041
:103ED0000103002B00F08780924B5B6803F00C031A
:103EE000042B0CD08F4B5B6803F00C03082B12D112
:103EF0008C4B5B6803F48033B3F5803F0BD1894B67
:103F00001B6803F40033002B6CD07B685B68002BCC
:103F100068D101234CE27B685B68B3F5803F06D132
:103F2000804B1B687F4A43F4803313602EE07B682C
:103F30005B68002B0CD17B4B1B687A4A23F48033DF
:103F40001360784B1B68774A23F4802313601DE0CD
:103F50007B685B68B3F5A02F0CD1724B1B68714A6C
:103F600043F4802313606F4B1B686E4A43F4803325
:103F700013600BE06B4B1B686A4A23F480331360B9
:103F8000684B1B68674A23F4802313607B685B6877
:103F9000002B13D0FEF73EFD386108E0FEF73AFD36
:103FA00002463B69D31A642B01D9032300E25D4B1F
:103FB0001B6803F40033002BF0D014E0FEF72AFD59
:103FC000386108E0FEF726FD02463B69D31A642BF0
:103FD00001D90323ECE1534B1B6803F40033002B9E
:103FE000F0D100E000BF7B681B6803F00203002BE8
:103FF00063D04C4B5B6803F00C03002B0BD0494B98
:104000005B6803F00C03082B1CD1464B5B6803F480
:104010008033002B16D1434B1B6803F00203002BA7
:1040200005D07B681B69012B01D00123C0E13D4B0A
:104030001B6823F0F8027B685B69DB003949134396
:104040000B603AE07B681B69002B20D0364B0122C5
:104050001A60FEF7DFFC386108E0FEF7DBFC024681
:104060003B69D31A022B01D90323A1E12D4B1B6815
:1040700003F00203002BF0D02A4B1B6823F0F80258
:104080007B685B69DB00274913430B6015E0264B17
:1040900000221A60FEF7BEFC386108E0FEF7BAFCA9
:1040A00002463B69D31A022B01D9032380E11D4B41
:1040B0001B6803F00203002BF0D17B681B6803F040
:1040C0000803002B3AD07B689B69002B19D0174B53
:1040D00001221A60FEF79EFC386108E0FEF79AFCA8
:1040E00002463B69D31A022B01D9032360E10D4B31
:1040F0005B6A03F00203002BF0D0012000F0CEFA3F
:104100001CE00A4B00221A60FEF784FC38610FE0C5
:10411000FEF780FC02463B69D31A022B08D9032321
:1041200046E100BF001002400000424280044242CB
:10413000924B5B6A03F00203002BE9D17B681B689A
:1041400003F00403002B00F0A6800023FB758B4BCB
:10415000DB6903F08053002B0DD1884BDB69874A64
:1041600043F08053D361854BDB6903F08053BB6020
:10417000BB680123FB75824B1B6803F48073002B23
:1041800018D17F4B1B687E4A43F480731360FEF79F
:1041900041FC386108E0FEF73DFC02463B69D31A5A
:1041A000642B01D9032303E1754B1B6803F480736F
:1041B000002BF0D07B68DB68012B06D16F4B1B6AAC
:1041C0006E4A43F0010313622DE07B68DB68002B2D
:1041D0000CD16A4B1B6A694A23F001031362674BD7
:1041E0001B6A664A23F0040313621CE07B68DB68E9
:1041F000052B0CD1614B1B6A604A43F00403136228
:104200005E4B1B6A5D4A43F0010313620BE05B4B9C
:104210001B6A5A4A23F001031362584B1B6A574A20
:1042200023F0040313627B68DB68002B15D0FEF7D4
:10423000F1FB38610AE0FEF7EDFB02463B69D31A59
:1042400041F28832934201D90323B1E04B4B1B6A00
:1042500003F00203002BEED014E0FEF7DBFB386125
:104260000AE0FEF7D7FB02463B69D31A41F28832D7
:10427000934201D903239BE0404B1B6A03F00203E6
:10428000002BEED1FB7D012B05D13C4BDB693B4A7A
:1042900023F08053D3617B68DB69002B00F08780BB
:1042A000364B5B6803F00C03082B61D07B68DB693D
:1042B000022B46D1334B00221A60FEF7ABFB38616C
:1042C00008E0FEF7A7FB02463B69D31A022B01D98F
:1042D00003236DE0294B1B6803F00073002BF0D122
:1042E0007B681B6AB3F5803F08D1244B5B6823F4DD
:1042F00000327B689B68214913434B601F4B5B680E
:1043000023F474127B68196A7B685B6A0B431B4950
:1043100013434B601B4B01221A60FEF77BFB386195
:1043200008E0FEF777FB02463B69D31A022B01D95E
:1043300003233DE0114B1B6803F00073002BF0D00A
:1043400035E0104B00221A60FEF764FB386108E08C
:10435000FEF760FB02463B69D31A022B01D9032307
:1043600026E0064B1B6803F00073002BF0D11EE023
:104370007B68DB69012B07D1012319E000100240A3
:1043800000700040600042420B4B5B68FB60FB68C2
:1043900003F480327B681B6A9A4206D1FB6803F4FF
:1043A00070127B685B6A9A4201D0012300E000230F
:1043B00018461837BD4680BD0010024080B584B055
:1043C00000AF786039607B68002B01D10123D0E019
:1043D0006A4B1B6803F007033A689A4210D9674B8F
:1043E0001B6823F0070265493B6813430B60634B6E
:1043F0001B6803F007033A689A4201D00123B8E032
:104400007B681B6803F00203002B20D07B681B68CD
:1044100003F00403002B05D0594B5B68584A43F462
:10442000E06353607B681B6803F00803002B05D032
:10443000534B5B68524A43F460535360504B5B6884
:1044400023F0F0027B689B684D4913434B607B6807
:104450001B6803F00103002B40D07B685B68012BD5
:1044600007D1474B1B6803F40033002B15D1012300
:104470007FE07B685B68022B07D1414B1B6803F030
:104480000073002B09D1012373E03D4B1B6803F03F
:104490000203002B01D101236BE0394B5B6823F051
:1044A00003027B685B68364913434B60FEF7B2FA40
:1044B000F8600AE0FEF7AEFA0246FB68D31A41F252
:1044C0008832934201D9032353E02D4B5B6803F0FC
:1044D0000C027B685B689B009A42EBD1274B1B6800
:1044E00003F007033A689A4210D2244B1B6823F06A
:1044F000070222493B6813430B60204B1B6803F003
:1045000007033A689A4201D0012332E07B681B68B6
:1045100003F00403002B08D0194B5B6823F4E0621E
:104520007B68DB68164913434B607B681B6803F0AC
:104530000803002B09D0124B5B6823F460527B68A0
:104540001B69DB000E4913434B6000F021F8024663
:104550000B4B5B681B0903F00F030A49CB5C22FA83
:1045600003F3094A1360094B1B681846FEF710FA5B
:10457000002318461037BD4680BD00BF0020024012
:10458000001002404CA70008380000203C0000202A
:1045900080B487B000AF0023FB600023BB60002322
:1045A0007B6100237B6000233B611E4B5B68FB60EB
:1045B000FB6803F00C03042B02D0082B03D027E088
:1045C000194B3B6127E0FB689B0C03F00F03174A74
:1045D000D35C7B60FB6803F48033002B10D0114B5D
:1045E0005B685B0C03F00103114AD35CBB607B6822
:1045F0000D4A03FB02F2BB68B2FBF3F37B6104E0FC
:104600007B680C4A02FB03F37B617B693B6102E040
:10461000054B3B6100BF3B6918461C37BD4680BC5B
:10462000704700BF0010024000127A0064A7000823
:1046300074A7000800093D0080B400AF024B1B685E
:104640001846BD4680BC70473800002080B500AFDA
:10465000FFF7F2FF0246054B5B681B0A03F00703F6
:104660000349CB5C22FA03F3184680BD00100240D8
:104670005CA7000880B500AFFFF7DEFF0246054BE0
:104680005B68DB0A03F007030349CB5C22FA03F300
:10469000184680BD001002405CA7000880B485B0B9
:1046A00000AF78600A4B1B680A4AA2FB03235B0A2F
:1046B0007A6802FB03F3FB6000BFFB685A1EFA60D6
:1046C000002BF9D100BF00BF1437BD4680BC704736
:1046D00038000020D34D621080B582B000AF786002
:1046E0007B68002B01D1012376E07B685B6A002B9D
:1046F00008D17B685B68B3F5827F09D07B680022B4
:10470000DA6105E07B6800221A617B6800225A6149
:104710007B6800229A627B6893F85130DBB2002BF1
:1047200006D17B68002283F850207868FDF726FECA
:104730007B68022283F851207B681B681A687B68BB
:104740001B6822F040021A607B685B6803F4827287
:104750007B689B6803F404431A437B68DB6803F4BB
:1047600000631A437B681B6903F002031A437B68EA
:104770005B6903F001031A437B689B6903F40073D0
:104780001A437B68DB6903F038031A437B681B6AB2
:1047900003F0800342EA03017B689B6A03F4005242
:1047A0007B681B680A431A607B689B691A0C7B68EC
:1047B0001B6802F004025A607B681B68DA697B6838
:1047C0001B6822F40062DA617B6800225A657B680C
:1047D000012283F85120002318460837BD4680BDCA
:1047E00080B582B000AF78607B68002B01D10123D7
:1047F00041E07B6893F83D30DBB2002B06D17B684B
:10480000002283F83C207868FDF778FE7B6802225E
:1048100083F83D207B681A687B680433194610468C
:1048200000F03EFE7B68012283F846207B6801226F
:1048300083F83E207B68012283F83F207B680122B9
:1048400083F840207B68012283F841207B680122A5
:1048500083F842207B68012283F843207B68012291
:1048600083F844207B68012283F845207B6801227D
:1048700083F83D20002318460837BD4680BD000060
:1048800080B485B000AF78607B6893F83D30DBB2D0
:10489000012B01D001233AE07B68022283F83D20FE
:1048A0007B681B68DA687B681B6842F00102DA608B
:1048B0007B681B68184A93420ED07B681B68B3F173
:1048C000804F09D07B681B68144A934204D07B68F0
:1048D0001B68134A934211D17B681B689B6803F0E5
:1048E0000703FB60FB68062B10D07B681B681A6807
:1048F0007B681B6842F001021A6007E07B681B6856
:104900001A687B681B6842F001021A60002318468F
:104910001437BD4680BC7047002C014000040040A5
:104920000008004080B582B000AF78607B68002B43
:1049300001D1012341E07B6893F83D30DBB2002BCD
:1049400006D17B68002283F83C207868FDF760FD83
:104950007B68022283F83D207B681A687B680433F9
:104960001946104600F09CFD7B68012283F8462022
:104970007B68012283F83E207B68012283F83F2078
:104980007B68012283F840207B68012283F8412064
:104990007B68012283F842207B68012283F8432050
:1049A0007B68012283F844207B68012283F845203C
:1049B0007B68012283F83D20002318460837BD4656
:1049C00080BD000080B584B000AF786039603B687E
:1049D000002B09D17B6893F83E30DBB2012B14BF6A
:1049E00001230023DBB222E03B68042B09D17B6862
:1049F00093F83F30DBB2012B14BF01230023DBB25D
:104A000015E03B68082B09D17B6893F84030DBB296
:104A1000012B14BF01230023DBB208E07B6893F86D
:104A20004130DBB2012B14BF01230023DBB2002B8A
:104A300001D001235EE03B68002B04D17B68022299
:104A400083F83E2013E03B68042B04D17B680222EC
:104A500083F83F200BE03B68082B04D17B680222DF
:104A600083F8402003E07B68022283F841207B68C2
:104A70001B6801223968184600F092FF7B681B68AA
:104A80001E4A934207D17B681B685A6C7B681B687F
:104A900042F400425A647B681B68184A93420ED065
:104AA0007B681B68B3F1804F09D07B681B68144A90
:104AB000934204D07B681B68124A934211D17B68F1
:104AC0001B689B6803F00703FB60FB68062B10D094
:104AD0007B681B681A687B681B6842F001021A60D9
:104AE00007E07B681B681A687B681B6842F001025C
:104AF0001A60002318461037BD4680BD002C0140C7
:104B0000000400400008004080B584B000AF786029
:104B100039600023FB733B68002B09D17B6893F855
:104B20003E30DBB2012B14BF01230023DBB222E0B5
:104B30003B68042B09D17B6893F83F30DBB2012B33
:104B400014BF01230023DBB215E03B68082B09D119
:104B50007B6893F84030DBB2012B14BF01230023A4
:104B6000DBB208E07B6893F84130DBB2012B14BF65
:104B700001230023DBB2002B01D00123A9E03B6815
:104B8000002B04D17B68022283F83E2013E03B68AF
:104B9000042B04D17B68022283F83F200BE03B68A2
:104BA000082B04D17B68022283F8402003E07B6855
:104BB000022283F841203B680C2B41D801A252F815
:104BC00023F000BFF94B0008414C0008414C00089D
:104BD000414C00080B4C0008414C0008414C0008B7
:104BE000414C00081D4C0008414C0008414C000895
:104BF000414C00082F4C00087B681B68DA687B6812
:104C00001B6842F00202DA601DE07B681B68DA680C
:104C10007B681B6842F00402DA6014E07B681B6862
:104C2000DA687B681B6842F00802DA600BE07B6898
:104C30001B68DA687B681B6842F01002DA6002E0E9
:104C40000123FB7300BFFB7B002B41D17B681B68FA
:104C500001223968184600F0A3FE7B681B681F4AD2
:104C6000934207D17B681B685A6C7B681B6842F4CF
:104C700000425A647B681B68184A93420ED07B68D6
:104C80001B68B3F1804F09D07B681B68144A9342BC
:104C900004D07B681B68134A934211D17B681B6860
:104CA0009B6803F00703BB60BB68062B10D07B68D2
:104CB0001B681A687B681B6842F001021A6007E0F3
:104CC0007B681B681A687B681B6842F001021A60E7
:104CD000FB7B18461037BD4680BD00BF002C01404D
:104CE000000400400008004080B586B000AF786046
:104CF00039607B68002B01D1012393E07B6893F836
:104D00003D30DBB2002B06D17B68002283F83C20CB
:104D10007868FDF7AFFB7B68022283F83D207B6853
:104D20001B689B687A68126823F4804323F00703AA
:104D300093607B681A687B6804331946104600F05C
:104D4000AFFB7B681B689B687B617B681B689B690A
:104D50003B617B681B681B6AFB603B681B687A6968
:104D600013437B613B6923F4407323F003033B61EE
:104D70003B689A683B689B691B0213433A6913437B
:104D80003B613B6923F4406323F00C033B613B69C7
:104D900023F4704323F0F0033B613B68DA683B681F
:104DA000DB691B0213433A6913433B613B681B6990
:104DB0001A013B681B6A1B0313433A6913433B61A7
:104DC000FB6823F02203FB603B685A683B685B6921
:104DD0001B011343FA681343FB607B681B687A6905
:104DE0009A607B681B683A699A617B681B68FA68FD
:104DF0001A627B68012283F846207B68012283F8CF
:104E00003E207B68012283F83F207B68012283F8E3
:104E100042207B68012283F843207B68012283F8CB
:104E20003D20002318461837BD4680BD80B584B0AC
:104E300000AF786039607B6893F83E30FB737B6825
:104E400093F83F30BB737B6893F842307B737B6889
:104E500093F843303B733B68002B10D1FB7B012B55
:104E600002D17B7B012B01D0012369E07B68022208
:104E700083F83E207B68022283F8422031E03B68C1
:104E8000042B10D1BB7B012B02D13B7B012B01D02A
:104E9000012355E07B68022283F83F207B680222D1
:104EA00083F843201DE0FB7B012B08D1BB7B012B4A
:104EB00005D17B7B012B02D13B7B012B01D0012350
:104EC0003EE07B68022283F83E207B68022283F862
:104ED0003F207B68022283F842207B68022283F80D
:104EE00043203B68002B03D03B68042B08D00FE025
:104EF0007B681B6801220021184600F051FD16E076
:104F00007B681B6801220421184600F049FD0EE071
:104F10007B681B6801220021184600F041FD7B6878
:104F20001B6801220421184600F03AFD00BF7B688F
:104F30001B681A687B681B6842F001021A60002334
:104F400018461037BD4680BD80B582B000AF78608E
:104F50007B681B681B6903F00203022B22D17B686C
:104F60001B68DB6803F00203022B1BD17B681B6804
:104F70006FF002021A617B6801221A777B681B6856
:104F80009B6903F00303002B03D07868FCF739FE1C
:104F900005E0786800F069FA786800F06FFA7B68DD
:104FA00000221A777B681B681B6903F00403042B3B
:104FB00022D17B681B68DB6803F00403042B1BD140
:104FC0007B681B686FF004021A617B6802221A7703
:104FD0007B681B689B6903F44073002B03D07868DF
:104FE000FCF70FFE05E0786800F03FFA786800F003
:104FF00045FA7B6800221A777B681B681B6903F0FF
:105000000803082B22D17B681B68DB6803F00803C8
:10501000082B1BD17B681B686FF008021A617B6844
:1050200004221A777B681B68DB6903F00303002BFB
:1050300003D07868FCF7E5FD05E0786800F015FA24
:10504000786800F01BFA7B6800221A777B681B687F
:105050001B6903F01003102B22D17B681B68DB68EF
:1050600003F01003102B1BD17B681B686FF010023C
:105070001A617B6808221A777B681B68DB6903F476
:105080004073002B03D07868FCF7BBFD05E078681F
:1050900000F0EBF9786800F0F1F97B6800221A77EC
:1050A0007B681B681B6903F00103012B0ED17B6831
:1050B0001B68DB6803F00103012B07D17B681B68C9
:1050C0006FF001021A617868FDF7FAFB7B681B68D4
:1050D0001B6903F08003802B0ED17B681B68DB68A3
:1050E00003F08003802B07D17B681B686FF0800280
:1050F0001A61786800F030FD7B681B681B6903F05B
:105100004003402B0ED17B681B68DB6803F0400333
:10511000402B07D17B681B686FF040021A617868EA
:1051200000F0B5F97B681B681B6903F02003202B96
:105130000ED17B681B68DB6803F02003202B07D1AE
:105140007B681B686FF020021A61786800F0FBFC36
:1051500000BF0837BD4680BD80B586B000AFF8609F
:10516000B9607A600023FB75FB6893F83C30012B33
:1051700001D10223AEE0FB68012283F83C207B686A
:105180000C2B00F29F8001A252F823F0C1510008BD
:10519000C5520008C5520008C55200080152000857
:1051A000C5520008C5520008C55200084352000805
:1051B000C5520008C5520008C552000883520008B5
:1051C000FB681B68B968184600F0CCF9FB681B68DF
:1051D0009A69FB681B6842F008029A61FB681B68C9
:1051E0009A69FB681B6822F004029A61FB681B68DD
:1051F0009969BB681A69FB681B680A439A6164E095
:10520000FB681B68B968184600F012FAFB681B6857
:105210009A69FB681B6842F400629A61FB681B682C
:105220009A69FB681B6822F480629A61FB681B68BC
:105230009969BB681B691A02FB681B680A439A617B
:1052400043E0FB681B68B968184600F05BFAFB682E
:105250001B68DA69FB681B6842F00802DA61FB68C8
:105260001B68DA69FB681B6822F00402DA61FB68DC
:105270001B68D969BB681A69FB681B680A43DA6155
:1052800023E0FB681B68B968184600F0A5FAFB68C4
:105290001B68DA69FB681B6842F40062DA61FB682C
:1052A0001B68DA69FB681B6822F48062DA61FB68BC
:1052B0001B68D969BB681B691A02FB681B680A4333
:1052C000DA6102E00123FB7500BFFB68002283F86E
:1052D0003C20FB7D18461837BD4680BD80B584B0A4
:1052E00000AF786039600023FB737B6893F83C3033
:1052F000012B01D10223B4E07B68012283F83C201A
:105300007B68022283F83D207B681B689B68BB603A
:10531000BB6823F07703BB60BB6823F47F43BB60AB
:105320007B681B68BA689A603B681B68B3F5005FCE
:105330003ED0B3F5005F00F28780B3F5805F00F0E8
:105340008680B3F5805F7FD8702B1AD0702B7BD806
:10535000602B50D0602B77D8502B3CD0502B73D87B
:10536000402B58D0402B6FD8302B64D0302B6BD8CB
:10537000202B60D0202B67D8002B5CD0102B5AD06C
:1053800062E07B6818683B6899683B685A683B68CC
:10539000DB6800F0E6FA7B681B689B68BB60BB6853
:1053A00043F07703BB607B681B68BA689A604FE084
:1053B0007B6818683B6899683B685A683B68DB689B
:1053C00000F0CFFA7B681B689A687B681B6842F420
:1053D00080429A603CE07B6818683B6859683B688B
:1053E000DB681A4600F046FA7B681B6850211846B5
:1053F00000F09DFA2CE07B6818683B6859683B68B0
:10540000DB681A4600F064FA7B681B686021184666
:1054100000F08DFA1CE07B6818683B6859683B68AF
:10542000DB681A4600F026FA7B681B6840211846A4
:1054300000F07DFA0CE07B681A683B681B6819462F
:10544000104600F074FA03E00123FB7300E000BF94
:105450007B68012283F83D207B68002283F83C2092
:10546000FB7B18461037BD4680BD80B483B000AFCB
:10547000786000BF0C37BD4680BC704780B483B0F5
:1054800000AF786000BF0C37BD4680BC704780B469
:1054900083B000AF786000BF0C37BD4680BC70475A
:1054A00080B485B000AF786039607B681B68FB60B2
:1054B0007B68294A93420BD07B68B3F1804F07D0B9
:1054C0007B68264A934203D07B68254A934208D1E1
:1054D000FB6823F07003FB603B685B68FA6813436A
:1054E000FB607B681C4A93420BD07B68B3F1804F12
:1054F00007D07B68194A934203D07B68184A9342CD
:1055000008D1FB6823F44073FB603B68DB68FA68F2
:105510001343FB60FB6823F080023B685B69134325
:10552000FB607B68FA681A603B689A687B68DA629D
:105530003B681A687B689A627B68074A934203D18A
:105540003B681A697B681A637B6801225A6100BF55
:105550001437BD4680BC7047002C01400004004059
:105560000008004080B487B000AF786039607B6885
:105570001B6A7B617B681B6A23F001027B681A62ED
:105580007B685B683B617B689B69FB60FB6823F021
:105590007003FB60FB6823F00303FB603B681B6840
:1055A000FA681343FB607B6923F002037B613B686D
:1055B0009B687A6913437B617B681C4A93420CD1D8
:1055C0007B6923F008037B613B68DB687A691343DE
:1055D0007B617B6923F004037B617B68134A934200
:1055E00011D13B6923F480733B613B6923F4007361
:1055F0003B613B685B693A6913433B613B689B696C
:105600003A6913433B617B683A695A607B68FA6880
:105610009A613B685A687B685A637B687A691A6248
:1056200000BF1C37BD4680BC704700BF002C014046
:1056300080B487B000AF786039607B681B6A7B619B
:105640007B681B6A23F010027B681A627B685B68C8
:105650003B617B689B69FB60FB6823F4E043FB6074
:10566000FB6823F44073FB603B681B681B02FA680D
:105670001343FB607B6923F020037B613B689B68DD
:105680001B017A6913437B617B681D4A93420DD1EC
:105690007B6923F080037B613B68DB681B017A69CF
:1056A00013437B617B6923F040037B617B68144A71
:1056B000934213D13B6923F480633B613B6923F43C
:1056C00000633B613B685B699B003A6913433B6144
:1056D0003B689B699B003A6913433B617B683A696D
:1056E0005A607B68FA689A613B685A687B689A637B
:1056F0007B687A691A6200BF1C37BD4680BC704760
:10570000002C014080B487B000AF786039607B68BE
:105710001B6A7B617B681B6A23F480727B681A6258
:105720007B685B683B617B68DB69FB60FB6823F03F
:105730007003FB60FB6823F00303FB603B681B689E
:10574000FA681343FB607B6923F400737B613B6859
:105750009B681B027A6913437B617B681D4A9342F5
:105760000DD17B6923F400637B613B68DB681B021E
:105770007A6913437B617B6923F480637B617B6877
:10578000144A934213D13B6923F480533B613B6934
:1057900023F400533B613B685B691B013A69134387
:1057A0003B613B689B691B013A6913433B617B6822
:1057B0003A695A607B68FA68DA613B685A687B68C4
:1057C000DA637B687A691A6200BF1C37BD4680BC09
:1057D000704700BF002C014080B487B000AF7860F4
:1057E00039607B681B6A3B617B681B6A23F48052CB
:1057F0007B681A627B685B687B617B68DB69FB6046
:10580000FB6823F4E043FB60FB6823F44073FB6018
:105810003B681B681B02FA681343FB603B6923F477
:1058200000533B613B689B681B033A6913433B6130
:105830007B680F4A934209D17B6923F480437B61E3
:105840003B685B699B017A6913437B617B687A697A
:105850005A607B68FA68DA613B685A687B681A6448
:105860007B683A691A6200BF1C37BD4680BC70472E
:10587000002C014080B487B000AFF860B9607A6056
:10588000FB681B6A7B61FB681B6A23F00102FB68F3
:105890001A62FB689B693B613B6923F0F0033B6143
:1058A0007B681B013A6913433B617B6923F00A0360
:1058B0007B617A69BB6813437B61FB683A699A61D3
:1058C000FB687A691A6200BF1C37BD4680BC70470E
:1058D00080B487B000AFF860B9607A60FB681B6A7B
:1058E0007B61FB681B6A23F01002FB681A62FB688D
:1058F0009B693B613B6923F470433B617B681B03FD
:105900003A6913433B617B6923F0A0037B61BB6869
:105910001B017A6913437B61FB683A699A61FB68F2
:105920007A691A6200BF1C37BD4680BC704780B4DC
:1059300085B000AF786039607B689B68FB60FB686E
:1059400023F07003FB603A68FB68134343F00703DE
:10595000FB607B68FA689A6000BF1437BD4680BC64
:10596000704780B487B000AFF860B9607A603B6080
:10597000FB689B687B617B6923F47F437B613B68A9
:105980001A027B681A43BB6813437A6913437B612D
:10599000FB687A699A6000BF1C37BD4680BC7047BF
:1059A00080B487B000AFF860B9607A60BB6803F07C
:1059B0001F03012202FA03F37B61FB681A6A7B6909
:1059C000DB431A40FB681A62FB681A6ABB6803F083
:1059D0001F03796801FA03F31A43FB681A6200BFD8
:1059E0001C37BD4680BC704780B485B000AF78607E
:1059F00039607B6893F83C30012B01D1022346E0EB
:105A00007B68012283F83C207B68022283F83D20DA
:105A10007B681B685B68FB607B681B689B68BB607E
:105A2000FB6823F07003FB603B681B68FA68134354
:105A3000FB607B681B68FA685A607B681B68164AC3
:105A400093420ED07B681B68B3F1804F09D07B680E
:105A50001B68124A934204D07B681B68104A934229
:105A60000CD1BB6823F08003BB603B685B68BA68FD
:105A70001343BB607B681B68BA689A607B6801222D
:105A800083F83D207B68002283F83C2000231846E1
:105A90001437BD4680BC7047002C01400004004014
:105AA0000008004080B485B000AF78603960002302
:105AB000FB607B6893F83C30012B01D102233DE071
:105AC0007B68012283F83C20FB6823F0FF023B68DF
:105AD000DB681343FB60FB6823F440723B689B6800
