:020000040800F2
:100000000050002005300008A92D0008AF2D000881
:10001000B52D0008BB2D0008C12D00080000000010
:10002000000000000000000000000000C72D0008D4
:10003000D32D000800000000DF2D0008EB2D000884
:100040004D3000084D3000084D3000084D3000089C
:100050004D3000084D3000084D3000084D3000088C
:100060004D3000084D3000084D3000084D3000087C
:100070004D3000084D3000084D3000084D3000086C
:100080004D3000084D3000084D3000084D3000085C
:100090004D300008F92D00084D3000084D300008A3
:1000A0004D3000084D3000084D3000084D3000083C
:1000B0004D3000080D2E00084D3000084D3000086E
:1000C0004D3000084D3000084D3000084D3000081C
:1000D0004D3000084D3000084D3000084D3000080C
:1000E0004D3000084D3000084D3000080000000081
:1000F0000000000000000000000000000000000000
:0C01000000000000000000005FF808F1A3
:1001100010B5054C237833B9044B13B10448AFF341
:1001200000800123237010BDD801002000000000D2
:1001300080B5000808B5034B1BB103490348AFF372
:10014000008008BD00000000DC01002080B5000830
:10015000034613F8012B002AFBD1181A0138704707
:1001600081F0004102E000BF83F0004330B54FEA68
:1001700041044FEA430594EA050F08BF90EA020FD5
:100180001FBF54EA000C55EA020C7FEA645C7FEA68
:10019000655C00F0E2804FEA5454D4EB5555B8BF8B
:1001A0006D420CDD2C4480EA020281EA030382EAFC
:1001B000000083EA010180EA020281EA0303362D8E
:1001C00088BF30BD11F0004F4FEA01314FF4801C61
:1001D0004CEA113102D0404261EB410113F0004F73
:1001E0004FEA03334CEA133302D0524263EB43032A
:1001F00094EA050F00F0A780A4F10104D5F1200EC8
:100200000DDB02FA0EFC22FA05F2801841F1000122
:1002100003FA0EF2801843FA05F359410EE0A5F1F6
:1002200020050EF1200E012A03FA0EFC28BF4CF027
:10023000020C43FA05F3C01851EBE37101F00045DD
:1002400007D54FF0000EDCF1000C7EEB00006EEBEA
:100250000101B1F5801F1BD3B1F5001F0CD3490874
:100260005FEA30004FEA3C0C04F101044FEA4452CB
:1002700012F5800F80F09A80BCF1004F08BF5FEA52
:10028000500C50F1000041EB045141EA050130BD32
:100290005FEA4C0C404141EB0101013C28BFB1F544
:1002A000801FE9D291F0000F04BF01460020B1FA8F
:1002B00081F308BF2033A3F10B03B3F120020CDA62
:1002C0000C3208DD02F1140CC2F10C0201FA0CF040
:1002D00021FA02F10CE002F11402D8BFC2F1200CA5
:1002E00001FA02F120FA0CFCDCBF41EA0C0190405B
:1002F000E41AA2BF01EB0451294330BD6FEA0404A4
:100300001F3C1CDA0C340EDC04F11404C4F120028E
:1003100020FA04F001FA02F340EA030021FA04F3A0
:1003200045EA030130BDC4F10C04C4F1200220FAF7
:1003300002F001FA04F340EA0300294630BD21FA35
:1003400004F0294630BD94F0000F83F4801306BFFB
:1003500081F480110134013D4EE77FEA645C18BFEF
:100360007FEA655C29D094EA050F08BF90EA020F86
:1003700005D054EA000C04BF1946104630BD91EA7E
:10038000030F1EBF0021002030BD5FEA545C05D181
:100390004000494128BF41F0004130BD14F58004C0
:1003A0003CBF01F5801130BD01F0004545F0FE4134
:1003B00041F470014FF0000030BD7FEA645C1ABF69
:1003C000194610467FEA655C1CBF0B46024650EAA0
:1003D000013406BF52EA033591EA030F41F40021CC
:1003E00030BD00BF90F0000F04BF0021704730B552
:1003F0004FF4806404F132044FF000054FF0000127
:1004000050E700BF90F0000F04BF0021704730B5E7
:100410004FF4806404F1320410F0004548BF4042BC
:100420004FF000013EE700BF42004FEAE2014FEA11
:1004300031014FEA02701FBF12F07F4393F07F4FEC
:1004400081F06051704732F07F4208BF704793F0EF
:100450007F4F04BF41F40021704730B54FF4607402
:1004600001F0004521F000411CE700BF50EA010205
:1004700008BF704730B54FF000050AE050EA0102AE
:1004800008BF704730B511F0004502D5404261EB1E
:1004900041014FF4806404F132045FEA915C3FF45F
:1004A000D8AE4FF003025FEADC0C18BF03325FEAFC
:1004B000DC0C18BF033202EBDC02C2F1200300FAAD
:1004C00003FC20FA02F001FA03FE40EA0E0021FAD2
:1004D00002F11444BDE600BF70B54FF0FF0C4CF4C0
:1004E000E06C1CEA11541DBF1CEA135594EA0C0F72
:1004F00095EA0C0F00F0DEF82C4481EA030621EAAD
:100500004C5123EA4C5350EA013518BF52EA0335E7
:1005100041F4801143F4801338D0A0FB02CE4FF099
:100520000005E1FB02E506F00042E0FB03E54FF0C9
:100530000006E1FB03569CF0000F18BF4EF0010EC1
:10054000A4F1FF04B6F5007F64F5407404D25FEABD
:100550004E0E6D4146EB060642EAC62141EA555170
:100560004FEAC52040EA5E504FEACE2EB4F1FD0CB2
:1005700088BFBCF5E06F1ED8BEF1004F08BF5FEA30
:10058000500E50F1000041EB045170BD06F00046E2
:1005900046EA010140EA020081EA0301B4EB5C048F
:1005A000C2BFD4EB0C0541EA045170BD41F4801187
:1005B0004FF0000E013C00F3AB8014F1360FDEBFAC
:1005C000002001F0004170BDC4F10004203C35DA88
:1005D0000C341BDC04F11404C4F1200500FA05F30B
:1005E00020FA04F001FA05F240EA020001F00042AC
:1005F00021F0004110EBD37021FA04F642EB060122
:100600005EEA430E08BF20EAD37070BDC4F10C044B
:10061000C4F1200500FA04F320FA05F001FA04F20F
:1006200040EA020001F0004110EBD37041F10001FB
:100630005EEA430E08BF20EAD37070BDC4F1200506
:1006400000FA05F24EEA020E20FA04F301FA05F26E
:1006500043EA020321FA04F001F0004121FA04F216
:1006600020EA020000EBD3705EEA430E08BF20EAE6
:10067000D37070BD94F0000F0FD101F00046400020
:1006800041EB010111F4801F08BF013CF7D041EAA2
:10069000060195F0000F18BF704703F000465200A6
:1006A00043EB030313F4801F08BF013DF7D043EA77
:1006B0000603704794EA0C0F0CEA135518BF95EA2D
:1006C0000C0F0CD050EA410618BF52EA4306D1D1B4
:1006D00081EA030101F000414FF0000070BD50EAD3
:1006E000410606BF1046194652EA430619D094EA5D
:1006F0000C0F02D150EA013613D195EA0C0F05D147
:1007000052EA03361CBF104619460AD181EA03019A
:1007100001F0004141F0FE4141F470014FF0000052
:1007200070BD41F0FE4141F4780170BD70B54FF0ED
:10073000FF0C4CF4E06C1CEA11541DBF1CEA13556D
:1007400094EA0C0F95EA0C0F00F0A7F8A4EB05044F
:1007500081EA030E52EA03354FEA013100F0888046
:100760004FEA03334FF0805545EA131343EA12630F
:100770004FEA022245EA111545EA10654FEA0026C4
:100780000EF000419D4208BF964244F1FD0404F57D
:10079000407402D25B084FEA3202B61A65EB0305D9
:1007A0005B084FEA32024FF480104FF4002CB6EB96
:1007B000020E75EB030E22BFB61A754640EA0C0016
:1007C0005B084FEA3202B6EB020E75EB030E22BF56
:1007D000B61A754640EA5C005B084FEA3202B6EB97
:1007E000020E75EB030E22BFB61A754640EA9C0056
:1007F0005B084FEA3202B6EB020E75EB030E22BF26
:10080000B61A754640EADC0055EA060E18D04FEAE3
:10081000051545EA16754FEA06164FEAC30343EA83
:1008200052734FEAC2025FEA1C1CC0D111F4801F50
:100830000BD141EA00014FF000004FF0004CB6E749
:1008400011F4801F04BF01430020B4F1FD0C88BFE8
:10085000BCF5E06F3FF6AFAEB5EB030C04BFB6EBF3
:10086000020C5FEA500C50F1000041EB045170BDE6
:100870000EF0004E4EEA113114EB5C04C2BFD4EB13
:100880000C0541EA045170BD41F480114FF0000E97
:10089000013C90E645EA060E8DE60CEA135594EA13
:1008A0000C0F08BF95EA0C0F3FF43BAF94EA0C0F16
:1008B0000AD150EA01347FF434AF95EA0C0F7FF48B
:1008C00025AF104619462CE795EA0C0F06D152EADF
:1008D00003353FF4FDAE1046194622E750EA4106C3
:1008E00018BF52EA43067FF4C5AE50EA41047FF4D4
:1008F0000DAF52EA43057FF4EBAE12E74FF0FF3C39
:1009000006E000BF4FF0010C02E000BF4FF0010C09
:100910004DF804CD4FEA410C7FEA6C5C4FEA430C82
:1009200018BF7FEA6C5C1BD001B050EA410C0CBFD1
:1009300052EA430C91EA030F02BF90EA020F002033
:10094000704710F1000F91EA030F58BF994208BF9A
:1009500090422CBFD8176FEAE37040F00100704757
:100960004FEA410C7FEA6C5C02D150EA013C07D1AE
:100970004FEA430C7FEA6C5CD6D152EA033CD3D0F9
:100980005DF8040B704700BF8446104662468C46F3
:100990001946634600E000BF01B5FFF7B7FF002826
:1009A00048BF10F1000F01BD4DF808EDFFF7F4FF4F
:1009B0000CBF012000205DF808FB00BF4DF808EDDA
:1009C000FFF7EAFF34BF012000205DF808FB00BFFD
:1009D0004DF808EDFFF7E0FF94BF012000205DF81F
:1009E00008FB00BF4DF808EDFFF7CEFF94BF0120D4
:1009F00000205DF808FB00BF4DF808EDFFF7C4FFCD
:100A000034BF012000205DF808FB00BF4FEA410C15
:100A10007FEA6C5C02D150EA013C0AD14FEA430CF8
:100A20007FEA6C5C02D152EA033C02D14FF0000035
:100A300070474FF0010070474FEA410212F5001273
:100A400015D211D56FF47873B3EB625212D94FEA15
:100A5000C12343F0004343EA505311F0004F23FAFF
:100A600002F018BF404270474FF00000704750EA54
:100A7000013005D111F0004008BF6FF00040704711
:100A80004FF00000704700BF4A0011D212F500126B
:100A900011D20DD56FF47873B3EB62520ED44FEAD6
:100AA000C12343F0004343EA505323FA02F0704756
:100AB0004FF00000704750EA013002D14FF0FF3094
:100AC00070474FF0000070474FEA4102B2F1E04337
:100AD00024BFB3F5001CDCF1FE5C0DD901F0004C25
:100AE0004FEAC0024CEA5070B2F1004F40EB830075
:100AF00008BF20F00100704711F0804F21D113F1A1
:100B00003872BCBF01F00040704741F480114FEAD9
:100B10005252C2F11802C2F1200C10FA0CF320FA62
:100B200002F018BF40F001004FEAC1234FEAD3237F
:100B300003FA0CFC40EA0C0023FA02F34FEA4303E9
:100B4000CCE77FEA625307D150EA01331EBF4FF072
:100B5000FE4040F44000704701F0004040F0FE408D
:100B600040F40000704700BF4FF0FF0C1CEAD05269
:100B70001EBF1CEAD15392EA0C0F93EA0C0F6FD000
:100B80001A4480EA010C400218BF5FEA41211ED0DE
:100B90004FF0006343EA501043EA5111A0FB0131CA
:100BA0000CF00040B1F5000F3EBF490041EAD3719F
:100BB0005B0040EA010062F17F02FD2A1DD8B3F11B
:100BC000004F40EBC25008BF20F00100704790F08A
:100BD000000F0CF0004C08BF49024CEA502040EADC
:100BE00051207F3AC2BFD2F1FF0340EAC2507047A2
:100BF00040F400004FF00003013A5DDC12F1190FE0
:100C0000DCBF00F000407047C2F10002410021FA51
:100C100002F1C2F1200200FA02FC5FEA310040F169
:100C2000000053EA4C0308BF20EADC70704792F0E2
:100C3000000F00F0004C02BF400010F4000F013A1A
:100C4000F9D040EA0C0093F0000F01F0004C02BF15
:100C5000490011F4000F013BF9D041EA0C018FE784
:100C60000CEAD15392EA0C0F18BF93EA0C0F0AD08A
:100C700030F0004C18BF31F0004CD8D180EA0100B0
:100C800000F00040704790F0000F17BF90F0004F49
:100C9000084691F0000F91F0004F14D092EA0C0F2B
:100CA00001D142020FD193EA0C0F03D14B0218BFBE
:100CB000084608D180EA010000F0004040F0FE4004
:100CC00040F40000704740F0FE4040F440007047A0
:100CD0004FF0FF0C1CEAD0521EBF1CEAD15392EA1F
:100CE0000C0F93EA0C0F69D0A2EB030280EA010C0F
:100CF00049024FEA402037D04FF0805343EA1111A8
:100D000043EA10130CF000408B4238BF5B0042F105
:100D10007D024FF4000C8B4224BF5B1A40EA0C00AA
:100D2000B3EB510F24BFA3EB510340EA5C00B3EBDC
:100D3000910F24BFA3EB910340EA9C00B3EBD10FCA
:100D400024BFA3EBD10340EADC001B0118BF5FEA1C
:100D50001C1CE0D1FD2A3FF650AF8B4240EBC25045
:100D600008BF20F0010070470CF0004C4CEA502006
:100D70007F32C2BFD2F1FF0340EAC250704740F455
:100D800000004FF00003013A37E792F0000F00F047
:100D9000004C02BF400010F4000F013AF9D040EAC5
:100DA0000C0093F0000F01F0004C02BF490011F459
:100DB000000F013BF9D041EA0C0195E70CEAD15351
:100DC00092EA0C0F08D142027FF47DAF93EA0C0F38
:100DD0007FF470AF084676E793EA0C0F04D14B021C
:100DE0003FF44CAF08466EE730F0004C18BF31F0CE
:100DF000004CCAD130F000427FF45CAF31F00043C8
:100E00007FF43CAF5FE700BF4FF0FF3C06E000BF60
:100E10004FF0010C02E000BF4FF0010C4DF804CD83
:100E20004FEA40024FEA41037FEA226C18BF7FEA93
:100E3000236C11D001B052EA530C18BF90EA010F95
:100E400058BFB2EB030088BFC81738BF6FEAE17024
:100E500018BF40F0010070477FEA226C02D15FEAC0
:100E6000402C05D17FEA236CE4D15FEA412CE1D02C
:100E70005DF8040B704700BF844608466146FFE7F3
:100E80000FB5FFF7C9FF002848BF10F1000F0FBDD5
:100E90004DF808EDFFF7F4FF0CBF012000205DF8CE
:100EA00008FB00BF4DF808EDFFF7EAFF34BF012053
:100EB00000205DF808FB00BF4DF808EDFFF7E0FFEC
:100EC00094BF012000205DF808FB00BF4DF808ED3D
:100ED000FFF7D2FF94BF012000205DF808FB00BFA0
:100EE0004DF808EDFFF7C8FF34BF012000205DF882
:100EF00008FB00BF42000ED2B2F1FE4F0BD34FF001
:100F00009E03B3EB126209D44FEA002343F000437F
:100F100023FA02F070474FF00000704712F1610FA2
:100F200001D1420202D14FF0FF3070474FF0000074
:100F3000704700BF38B505460C46002200232846FE
:100F40002146FFF73BFD28B928462146BDE8384039
:100F500000F00AB8284604F1004100F005F84042CC
:100F600061EB410138BD00BFD0B500220B4B0646F6
:100F70000F46FFF7B1FAFFF787FD0446FFF732FA95
:100F80000022074BFFF7A8FA02460B4630463946C7
:100F9000FFF7EAF8FFF778FD2146D0BD0000F03DED
:100FA0000000F04180B588B004AF03463A60FB71A1
:100FB0000B46BB71BB79FB733B6818683B681B79B8
:100FC00099B2FB799AB2642302930123019307F14A
:100FD0000F030093012303F01BFD03461A46034B46
:100FE0001A7000BF1037BD4680BD00BF040200204C
:100FF00080B588B004AF03463A60FB710B46BB80F6
:10100000BB881B0A9BB2DBB23B73BB88DBB27B7332
:101010003B6818683B681B7999B2FB799AB26423E4
:1010200002930223019307F10C030093012303F0C1
:10103000EFFC03461A46034B1A7000BF1037BD463B
:1010400080BD00BF0402002080B588B004AF034615
:101050003960FB713B6818683B681B7943F00103FA
:10106000DBB299B2FB799AB2642302930123019314
:10107000084B0093012303F0C5FD03461A46064BB7
:101080001A70044B1B78FB73FB7B18461037BD4668
:1010900080BD00BF000200200402002080B588B09F
:1010A00004AF03463960FB713B6818683B681B79E5
:1010B00043F00103DBB299B2FB799AB26423029345
:1010C0000223019307F10C030093012303F09AFD1F
:1010D00003461A46074B1A703B7B1B021AB27B7BF6
:1010E0001BB213431BB2FB81FB8918461037BD4668
:1010F00080BD00BF040200202DE9F0438DB004AF95
:10110000B9607B600346FB731346BB736B461E4698
:10111000B97B0B46013BBB61CBB20022984691469E
:101120004FF000024FF000034FEAC90343EA58733F
:101130004FEAC802CBB200221C4615464FF000020F
:101140004FF00003EB0043EA5473E2000B46073311
:10115000DB08DB00ADEB030D04AB00337B61002348
:10116000FB7709E0FB7FBA681A44FB7F11787A6944
:10117000D154FB7F0133FB77FA7FBB7B9A42F1D3DB
:101180007B6818687B681B7999B2FB7B9AB2BB7B42
:101190009BB26424029401937B690093012303F0C2
:1011A00037FC03461A46044B1A70B54600BF243775
:1011B000BD46BDE8F08300BF0402002090B589B0B1
:1011C00004AFB9607B600346FB731346BB737B6857
:1011D00018687B681B7943F00103DBB299B2FB7B93
:1011E0009AB2BB7B9BB2642402940193BB680093C8
:1011F000012303F007FD03461A46034B1A7000BF94
:101200001437BD4690BD00BF0402002080B582B0F7
:1012100000AF03463960FB71FB795B08DBB23A68CB
:1012200019468A20FFF7BEFE084B1B78002B01D021
:10123000002306E03B68FA791A71054AFB791370BE
:10124000012318460837BD4680BD00BF04020020B8
:101250000000002080B588B000AF0346B9607A6016
:10126000FB73BB687A681A60BB681B79B96818465B
:10127000FFF7CCFF034683F00103DBB2002B01D064
:101280000023CAE2624B00221A70614B00225A709E
:101290005F4B00229A705E4B0022DA70B968C02062
:1012A000FFF7D2FE0346EE2B01D00023B5E2FB7B15
:1012B000002B0CD0B9688920FFF7C6FE034643F027
:1012C0000103DBB2BA6819468920FFF76BFEBA68E2
:1012D00000218820FFF766FEBA6801218020FFF711
:1012E00061FEBA680121FF20FFF75CFEBA680021A9
:1012F0000020FFF757FEB9689120FFF7A5FE0346CF
:101300001A46444B1A70BA6801210020FFF74AFEC2
:10131000BA680021FF20FFF745FEBA68002180204F
:10132000FFF740FEB9686020FFF78EFE034643F0EA
:101330001203DBB2BA6819466020FFF733FEB968C2
:101340004FF07A5000F070FABA68FF210120FFF7E1
:1013500029FE07F11B0107F11C03BA68184600F0CB
:1013600083FC034683F00103DBB2002B01D0002392
:1013700053E207F11401BB680622B020FFF71EFFFD
:10138000BA680121FF20FFF70DFEBA6800214F2047
:10139000FFF708FEBA682C214E20FFF703FEBA685B
:1013A0000021FF20FFF7FEFDBA68B421B620FFF749
:1013B000F9FDFB7E002B01D00C2300E000237B779E
:1013C0000023FB770023BB773DE0BA7F7B7F9A4207
:1013D00003D33B7FFA7F9A421ED1BB7FDB08D8B292
:1013E000034620333B4413F80C3C5AB2BB7F03F056
:1013F0000703012101FA03F35BB2DB435BB2134045
:101400005AB20346D2B220333B4403F80C2C17E007
:1014100000020020FA010020BB7FDB08DBB2203392
:101420003B4413F80C3C1A46BB7F03F0070342FA17
:1014300003F303F00103002B02D0FB7F0133FB77A2
:10144000BB7F0133BB77BB7F2F2BBED907F11401C4
:10145000BB680622B020FFF74FFEBA680121FF20CB
:10146000FFF7A0FDBA6800210020FFF79BFDBA68D6
:101470000021FF20FFF796FDBA6800210920FFF741
:1014800091FDBA6800211020FFF78CFDBA68002199
:101490001120FFF787FDBA6801212420FFF782FDA4
:1014A000BA68FF212520FFF77DFDBA68002175206D
:1014B000FFF778FDBA680121FF20FFF773FDBA68D6
:1014C0002C214E20FFF76EFDBA6800214820FFF75F
:1014D00069FDBA6820213020FFF764FDBA68002159
:1014E000FF20FFF75FFDBA6809213020FFF75AFDA2
:1014F000BA6800215420FFF755FDBA680421312055
:10150000FFF750FDBA6803213220FFF74BFDBA68A0
:1015100083214020FFF746FDBA6825214620FFF7CA
:1015200041FDBA6800216020FFF73CFDBA68002148
:101530002720FFF737FDBA6806215020FFF732FD5C
:10154000BA6800215120FFF72DFDBA68962152207C
:10155000FFF728FDBA6808215620FFF723FDBA6877
:1015600030215720FFF71EFDBA6800216120FFF7E8
:1015700019FDBA6800216220FFF714FDBA68002146
:101580006420FFF70FFDBA6800216520FFF70AFD10
:10159000BA68A0216620FFF705FDBA680121FF2087
:1015A000FFF700FDBA6832212220FFF7FBFCBA6882
:1015B00014214720FFF7F6FCBA68FF214920FFF706
:1015C000F1FCBA6800214A20FFF7ECFCBA68002160
:1015D000FF20FFF7E7FCBA680A217A20FFF7E2FC58
:1015E000BA6800217B20FFF7DDFCBA682121782052
:1015F000FFF7D8FCBA680121FF20FFF7D3FCBA68D7
:1016000034212320FFF7CEFCBA6800214220FFF7E7
:10161000C9FCBA68FF214420FFF7C4FCBA68262140
:101620004520FFF7BFFCBA6805214620FFF7BAFC4A
:10163000BA6840214020FFF7B5FCBA6806210E20A9
:10164000FFF7B0FCBA681A212020FFF7ABFCBA689C
:1016500040214320FFF7A6FCBA680021FF20FFF7D6
:10166000A1FCBA6803213420FFF79CFCBA6844212E
:101670003520FFF797FCBA680121FF20FFF792FCA5
:10168000BA6804213120FFF78DFCBA6809214B208C
:10169000FFF788FCBA6805214C20FFF783FCBA6885
:1016A00004214D20FFF77EFCBA680021FF20FFF7E0
:1016B00079FCBA6800214420FFF774FCBA68202145
:1016C0004520FFF76FFCBA6808214720FFF76AFC46
:1016D000BA6828214820FFF765FCBA680021672016
:1016E000FFF760FCBA6804217020FFF75BFCBA6862
:1016F00001217120FFF756FCBA68FE217220FFF726
:1017000051FCBA6800217620FFF74CFCBA68002132
:101710007720FFF747FCBA680121FF20FFF742FC62
:10172000BA6801210D20FFF73DFCBA680021FF20B7
:10173000FFF738FCBA6801218020FFF733FCBA6854
:10174000F8210120FFF72EFCBA680121FF20FFF7E6
:1017500029FCBA6801218E20FFF724FCBA68012118
:101760000020FFF71FFCBA680021FF20FFF71AFCDA
:10177000BA6800218020FFF715FCBA6804210A200E
:10178000FFF710FCB9688420FFF75EFC034623F0E6
:101790001003DBB2BA6819468420FFF703FCBA686D
:1017A00001210B20FFF7FEFBB86800F00DF903469E
:1017B0001C4A1360BA68E8210120FFF7F3FB194BBC
:1017C0001B68B968184600F063F8BA680121012067
:1017D000FFF7E8FBB968402000F024FC034683F0E3
:1017E0000103DBB2002B01D0002316E0BA6802210E
:1017F0000120FFF7D7FBB968002000F013FC034677
:1018000083F00103DBB2002B01D0002305E0BA68AE
:10181000E8210120FFF7C6FB012318462037BD460B
:1018200080BD00BFFC01002080B582B000AF7860B1
:1018300039604FF000017868FFF734FB0346002B56
:101840000AD17868FEF7F0FD0FA3D3E90023FFF774
:10185000D3F80346002B01D0002310E04FF086415F
:101860007868FFF781F903461846FFF743FB034604
:101870009BB23A6819464420FFF7BAFB0123184689
:101880000837BD4680BD00BFA4703D0AD7FF7F402A
:1018900080B592B000AF786039604FF4A563A7F8C7
:1018A00040304FF47073FB874FF42573BB8740F2D1
:1018B0004E237B8740F2B2233B874FF42573FB8690
:1018C00040F22623BB8644F620633B637A683B6B79
:1018D0009A4201D2002370E0B7F84020FB8F1344F6
:1018E0007B6407F124033968184600F06FFA07F1AA
:1018F0000C0107F124033A68184600F09BFA97F8A8
:101900002430002B05D0BA697B8F13447A6C1344C2
:101910007B6497F82630002B07D0BA693B8F1344BD
:101920005B007A6C13447B6409E097F82530002B48
:1019300005D0BA69BB8F13447A6C13447B6497F863
:101940002730002B05D0FA69FB8E13447A6C1344C0
:101950007B6497F82830002B2ED0BB8E7A6C134412
:101960007B647A6C7B689A4201D9002325E07A680F
:101970007B6CD31AFB62FB89DBB21946F86A00F074
:101980002BFB0346A7F8423097F82730002B05D0F1
:101990007A8AB7F842301344A7F84230B7F8423099
:1019A000184600F0C6FA03463A6819467120FFF758
:1019B0001FFB044A7B681360012318464837BD4665
:1019C00080BD00BFFC01002080B58EB000AF786004
:1019D00040F276737B864FF470733B864FF4257329
:1019E000FB8540F24E23BB8540F2B2237B854FF44A
:1019F00025733B8540F22623FB847A8E3B8E13446D
:101A00007B6307F120037968184600F0DFF907F1DE
:101A1000080107F120037A68184600F00BFA97F8DE
:101A20002030002B05D07A69BB8D13447A6B1344A8
:101A30007B6397F82230002B07D07A697B8D1344A3
:101A40005B007A6B13447B6309E097F82130002B2D
:101A500005D07A69FB8D13447A6B13447B6397F846
:101A60002330002B05D0BA693B8D13447A6B1344A5
:101A70007B6397F82430002B05D0FA69FB8C134464
:101A80007A6B13447B63044A7B6B13607B6B184651
:101A90003837BD4680BD00BFFC01002080B582B054
:101AA00000AF03463960FB71FB79002B09D139681F
:101AB0005020FFF7C9FA03460133DBB25B00DBB20B
:101AC0000DE0FB79012B09D139687020FFF7BCFAD2
:101AD00003460133DBB25B00DBB200E0FF231846B4
:101AE0000837BD4680BD000080B584B000AF786087
:101AF00001F006FB03469AB2254B1A8015E0254BF0
:101B00001B88002B11D001F0FBFA03469BB21A464A
:101B10001F4B1B88D31A1F4A1288934205DD1E4BA8
:101B200001221A704FF6FF732DE079681320FFF73A
:101B30008BFA034603F00703002BE0D079681E20E0
:101B4000FFF7ACFA0346BB81144B1B78032B0ED076
:101B5000032B10DC012B02D0022B04D00BE04FF43E
:101B6000CA73FB8109E040F29513FB8105E04FF455
:101B7000CB73FB8101E0BB89FB817A6801210B20DB
:101B8000FFF710FAFB8918461037BD4680BD00BF2D
:101B9000F8010020F4010020F601002004020020DA
:101BA00080B582B000AF78607A6801218020FFF7AD
:101BB000F9F97A680121FF20FFF7F4F97A6800212A
:101BC0000020FFF7EFF9244B1B787A681946912023
:101BD000FFF7E8F97A6801210020FFF7E3F97A6856
:101BE0000021FF20FFF7DEF97A6800218020FFF74F
:101BF000D9F97A6801210020FFF7D4F901F080FAC1
:101C000003469AB2154B1A8015E0154B1B88002B22
:101C100011D001F075FA03469BB21A460F4B1B8890
:101C2000D31A0F4A1288934205DD0E4B01221A7017
:101C30004FF6FF730CE079680020FFF705FA0346C2
:101C400003F00103002BE0D17868FFF74DFF034656
:101C500018460837BD4680BDFA010020F801002073
:101C6000F4010020F601002080B586B000AFF860D6
:101C7000B9607A607A6801218020FFF793F97A6869
:101C80000121FF20FFF78EF97A6800210020FFF77D
:101C900089F97A680621FF20FFF784F979688320A3
:101CA000FFF7D2F9034643F00403DBB27A68194622
:101CB0008320FFF777F97A680721FF20FFF772F991
:101CC0007A6801218120FFF76DF97A68012180206F
:101CD000FFF768F97A686B219420FFF763F97A6857
:101CE00000218320FFF75EF901F00AFA03469AB259
:101CF000344B1A8011E0344B1B88002B0DD001F0BF
:101D0000FFF903469BB21A462E4B1B88D31A2E4A64
:101D10001288934201DD00234FE079688320FFF7AA
:101D200093F90346002BE6D07A6801218320FFF760
:101D300039F979689220FFF787F90346FB75FB7D37
:101D400003F07F03DAB2FB681A70FB7DDB09DBB2BC
:101D500003F00103002B14BF01230023DAB2BB6898
:101D60001A707A6800218120FFF71CF97A68062131
:101D7000FF20FFF717F979688320FFF765F903461D
:101D800023F00403DBB27A6819468320FFF70AF9CF
:101D90007A680121FF20FFF705F97A680121002008
:101DA000FFF700F97A680021FF20FFF7FBF87A6857
:101DB00000218020FFF7F6F8012318461837BD46AA
:101DC00080BD00BFF8010020F401002080B584B080
:101DD00000AF7860396039680120FFF735F90346B4
:101DE000FB73FB7B1B09DBB203F00103DAB27B68F8
:101DF0001A70FB7BDB08DBB203F00103DAB27B680D
:101E00009A70FB7B9B08DBB203F00103DAB27B68BC
:101E10005A70FB7B9B09DBB203F00103DAB27B68EB
:101E2000DA70FB7BDB09DAB27B681A7100BF10370E
:101E3000BD4680BD80B584B000AFF860B9607A60FF
:101E400079680020FFF72AFE03469AB2BB681A8021
:101E500079684620FFF7F8F803469BB201339AB23F
:101E6000BB689A80BB689A88BB681B88DBB219463E
:101E7000104600F089F80246BB68DA6079685120A4
:101E8000FFF70CF90346184600F040F803461A46DF
:101E9000BB68DA80BB68DA88BB681B88DBB219468E
:101EA000104600F071F80246BB681A61796801209B
:101EB000FFF7F4FD03469AB2BB685A807968712037
:101EC000FFF7ECF80346184600F020F803461A46E0
:101ED000BB681A81FB68DB78002B07D0BB681A89C6
:101EE000BB68DB88D31A9AB2BB681A81BB681A89AF
:101EF000BB685B88DBB21946104600F045F8024625
:101F0000BB685A6100BF1037BD4680BD80B483B046
:101F100000AF0346FB80FB88DBB2FA88120A92B25C
:101F200093409BB201339BB218460C37BD4680BC30
:101F3000704780B485B000AF0346FB800023FB6090
:101F400000237B81FB88002B18D0FB88013BFB60C2
:101F500005E0FB685B08FB607B8901337B81FB68E4
:101F600023F0FF03002BF4D17B891B029AB2FB689C
:101F70009BB2DBB29BB213439BB200E00023184636
:101F80001437BD4680BC704780B485B000AF0346AF
:101F90000A46FB8013467B717B790D4A02FB03F3F3
:101FA00003F5FA730B4AA2FB03239B09FB60FB8832
:101FB000FA6803FB02F2FB685B081344054AA2FBC4
:101FC00003239B0918461437BD4680BC704700BFE9
:101FD000002F3A00D34D621080B485B000AF786016
:101FE0000B46FB70FB780D4A02FB03F303F5FA7313
:101FF0000B4AA2FB03239B09FB607B684FF47A72B8
:1020000003FB02F2FB685B081A44FB68B2FBF3F3C4
:1020100018461437BD4680BC704700BF002F3A00F9
:10202000D34D621080B582B000AF03463960FB71BA
:10203000FB7943F00103DBB23A6819460020FEF752
:10204000B1FF01F05DF803469AB2164B1A8011E019
:10205000154B1B88002B0DD001F052F803469BB2A4
:102060001A46104B1B88D31A0F4A1288934201DD7F
:10207000002313E039681320FEF7E6FF034603F060
:102080000703002BE4D03A6801210B20FEF78AFFFA
:102090003A6800210020FEF785FF01231846083723
:1020A000BD4680BDF8010020F401002080B584B059
:1020B00000AFF860B9607A603B603B687A68B968E5
:1020C000F86801F064FC00BF1037BD4680BD000019
:1020D00080B58CB000AF786039600223FB6040F2BD
:1020E000A2733B610023BB610023FB6108233B62B9
:1020F0003B681B881B0A9BB2DBB287F828303B6821
:102100001B88DBB287F829303B689B7887F82A3038
:102110003B68DB7887F82B303B681B7987F82C30DD
:102120003B685B7987F82D30552387F82E3055238F
:1021300087F82F3007F10C0307F1280207F110018F
:102140007868FFF7B3FF4FF48051034802F002FBB9
:1021500000BF3037BD4680BD000C014080B582B065
:1021600000AF78600B4B0C4A0121786801F0DEFC6F
:102170000346002B01D000F06DFC074B1B6840F2BA
:102180001272934202D1054B01221A7000BF083728
:10219000BD4680BD08020020100200202C02002055
:1021A00080B500AF00F054FF00F028F900F0E6FA27
:1021B00000F080F900F0BCF900F010FA00F08AFAA3
:1021C00000F0B2FA00F038FA7B4804F04DF87B4892
:1021D00001F099FB0346002B01D000F03BFC1021DD
:1021E000764801F0C4FD764805F03EFD754A764913
:1021F000764800F077FB7448FFF7D2FC03461A4696
:10220000734B1A807148FFF7CBFC03461A46714B9B
:102210001A80714B1B8801339AB26F4B1A806E4B38
:1022200002229A706D4B1B78012B40F0C0806B4BE3
:1022300000221A706A4B1B781B025AB2684B5B78FB
:102240005BB213435BB2DAB2664B1A70644B9A7896
:10225000654B1A70634B1A78644B1B789A4201D114
:1022600000BFA4E04FF40061614802F073FA4FF43C
:1022700080615F4802F06EFA5E4B1B78012B1DD126
:10228000534B1B8840F24C42934205D9514B1B885B
:1022900040F24C4293420DD84F4B02229A704E4B63
:1022A0000D22DA704C4B01221A71534B1A784A4BAB
:1022B0005A717CE04F4B00221A7078E0444B1B8827
:1022C0004FF41672934224D2424B1B884FF416727D
:1022D00093421ED23E4B1A883E4B1B889A4203D231
:1022E000454B00221A7002E0434B01221A703E4B0C
:1022F0001B78072B09D9384B00229A70364B0D22D8
:10230000DA70354B01221A7151E03A4B01221A70F2
:102310004DE02F4B1B8840F24C42934212D32D4B81
:102320001B8840F24C4293420CD32B4B02229A70F2
:10233000294B0D22DA70284B00221A71264B0222FB
:102340005A7134E0224B1B881A46224B1B88D31A41
:102350006422934211DD1F4B1B88B3F5617F0CD2C1
:102360001D4B02229A701C4B0D22DA701A4B002270
:102370001A71194B00225A7119E0164B1B881A4624
:10238000134B1B88D31A6422934210DD104B1B8819
:10239000B3F5617F0BD2104B02229A700E4B0D22C7
:1023A000DA700D4B00221A710B4B01225A710A4947
:1023B0000248FFF78DFE1EE7DC02002060020020CD
:1023C00098B5000888020020CC030020C403002038
:1023D000BC030020BE030020B40300202C02002018
:1023E00008020020BB03002001000020BA030020E7
:1023F000000C0140C0030020C103002080B594B050
:1024000000AF07F1280328220021184605F02CFD13
:1024100007F1140300221A605A609A60DA601A61A8
:102420003B1D00221A605A609A60DA600123BB6289
:102430004FF48033FB6200233B630123BB63022321
:102440007B644FF48033BB644FF4E013FB6407F10B
:102450002803184603F0F2F90346002B01D000F0E0
:10246000F9FA0F237B610223BB610023FB614FF468
:1024700080633B6200237B6207F11403022118464C
:1024800003F05EFC0346002B01D000F0E3FA0223C8
:102490007B604FF40043FB603B1D184603F0DEFDFC
:1024A0000346002B01D000F0D5FA00BF5037BD46DF
:1024B00080BD000080B584B000AF3B1D00221A60D3
:1024C0005A609A60184B194A1A60174B00229A609A
:1024D000154B00221A73144B00221A75124B4FF43D
:1024E0006022DA61104B00225A600F4B01221A6100
:1024F0000D4800F033FE0346002B01D000F0AAFA8D
:1025000004237B600123BB600023FB603B1D194655
:10251000054800F0FBFE0346002B01D000F09AFABC
:1025200000BF1037BD4680BD3002002000240140AE
:1025300080B58AB000AF274B274A1A60254B04228A
:102540005A60244B00229A60224B4FF08072DA606E
:10255000204B4FF440221A611E4B4FF440125A6137
:102560001C4B00221A761B4B00225A76194B002274
:102570009A76184B0022DA76164B00221A77154B02
:1025800000225A77134800F0FAFF0346002B01D0CF
:1025900000F060FA01233B620C237B6101233B6165
:1025A0004EF240233B6000237B604EF24023BB6031
:1025B0000023FB600023BB610123FB610D237B62D1
:1025C0003B461946034801F0D5F800BF2837BD4601
:1025D00080BD00BF600200200064004080B500AFF5
:1025E000124B134A1A60114B124A5A600F4B0022C9
:1025F0009A600E4B0022DA600C4B4FF480421A6155
:102600000A4B00225A61094B00229A61074B0022B3
:10261000DA61064B00221A62044802F0B5F803465C
:10262000002B01D000F016FA00BF80BD8802002008
:1026300000540040A086010080B586B000AF07F1CD
:10264000080300221A605A609A60DA603B46002252
:102650001A605A601D4B1E4A1A601C4B48F69F4276
:102660005A601A4B00229A60184BC722DA60174B47
:1026700000221A61154B00229A61144803F0A4FD50
:102680000346002B01D000F0E5F94FF48053BB6006
:1026900007F1080319460D4803F040FF0346002BDD
:1026A00001D000F0D7F900233B6000237B603B465C
:1026B0001946064804F016F90346002B01D000F035
:1026C000C9F900BF1837BD4680BD00BFDC0200203D
:1026D0000004004080B500AF114B124A1A60104B45
:1026E0004FF4E1325A600E4B00229A600C4B0022EC
:1026F000DA600B4B00221A61094B0C225A61084B1D
:1027000000229A61064B0022DA61054804F05AF96A
:102710000346002B01D000F09DF900BF80BD00BF33
:10272000240300200038014080B500AF114B124A4D
:102730001A60104B4FF4E1325A600E4B00229A603F
:102740000C4B0022DA600B4B00221A61094B0C2261
:102750005A61084B00229A61064B0022DA61054853
:1027600004F030F90346002B01D000F073F900BFEC
:1027700080BD00BF6C0300200044004080B588B0DD
:1027800000AF07F1100300221A605A609A60DA6005
:102790004F4B9B694E4A43F0100393614C4B9B692E
:1027A00003F01003FB60FB68494B9B69484A43F008
:1027B00020039361464B9B6903F02003BB60BB6819
:1027C000434B9B69424A43F004039361404B9B692E
:1027D00003F004037B607B683D4B9B693C4A43F0FC
:1027E000080393613A4B9B6903F008033B603B6825
:1027F00001224FF42041374801F094FF012241F6B5
:102800000851354801F08EFF00224FF44041324814
:1028100001F088FF00224FF48071304801F082FF00
:102820004FF420433B6101237B610023BB61022302
:10283000FB6107F110031946264801F0EFFD4FF444
:1028400080433B61264B7B610023BB6107F1100392
:102850001946204801F0E2FD03233B6100237B6120
:102860000023BB6107F1100319461B4801F0D6FD98
:102870004DF608533B6101237B610023BB610223BA
:10288000FB6107F110031946134801F0C7FD4FF42F
:1028900008533B61124B7B610023BB6107F11003BE
:1028A00019460D4801F0BAFD4FF480733B610123D6
:1028B0007B610023BB610223FB6107F11003194612
:1028C000064801F0ABFD00BF2037BD4680BD00BF0C
:1028D0000010024000100140000C014000080140BF
:1028E0000000111080B584B000AFF860B9607A6064
:1028F000FB6852221A71BB6852221A7100224FF4EF
:1029000000414E4801F00EFF00224FF480714C4808
:1029100001F008FF142000F0FDFB01224FF480714C
:10292000474801F0FFFE01224FF40041434801F007
:10293000F9FE142000F0EEFB00224FF480714048B5
:1029400001F0F0FE01224FF400413C4801F0EAFEA4
:10295000142000F0DFFB08E000224FF480513848DB
:1029600001F0E0FE374805F07FF97A68F968012048
:10297000FEF770FC0346002BEED0F9685020FEF7FE
:1029800045FC08E000224FF480512D4801F0CAFEBA
:102990002D4805F069F97A68F9680120FEF75AFCBC
:1029A0000346002BEED001224FF48071244801F041
:1029B000B9FE142000F0AEFB08E000224FF4805175
:1029C0001F4801F0AFFE214805F04EF97A68B9685A
:1029D0000120FEF73FFC0346002BEED0B9684220F1
:1029E000FEF714FC08E000224FF48051144801F077
:1029F00099FE174805F038F97A68B9680120FEF7A2
:102A000029FC0346002BEED001224FF480710C48C4
:102A100001F088FE01224FF40041084801F082FED7
:102A2000142000F077FB01224FF48051044801F09C
:102A300079FE00BF1037BD4680BD00BF00100140C9
:102A4000000C0140A0B50008ACB50008B8B50008FE
:102A5000C4B5000880B500AF72B600BF4FF4006186
:102A6000034801F077FEC82000F054FBF6E700BFF2
:102A7000000C014080B483B000AF0E4B9B690D4A3F
:102A800043F0010393610B4B9B6903F001037B60EF
:102A90007B68084BDB69074A43F08053D361054BE1
:102AA000DB6903F080533B603B6800BF0C37BD46D9
:102AB00080BC70470010024080B588B000AF7860DD
:102AC00007F1100300221A605A609A60DA607B688E
:102AD0001B68144A934221D1134B9B69124A43F459
:102AE00000739361104B9B6903F40073FB60FB68F8
:102AF0000D4B9B690C4A43F0040393610A4B9B699D
:102B000003F00403BB60BB6810233B6103237B61BC
:102B100007F110031946054801F080FC00BF20377B
:102B2000BD4680BD00240140001002400008014065
:102B300080B588B000AF786007F1100300221A60FA
:102B40005A609A60DA607B681B68204A934239D1E8
:102B50001F4BDB691E4A43F00073D3611C4BDB69DA
:102B600003F00073FB60FB68194B9B69184A43F044
:102B700004039361164B9B6903F00403BB60BB68BD
:102B80004FF400633B6100237B610023BB6107F1CD
:102B9000100319460F4801F041FC4FF480533B618C
:102BA00002237B610323FB6107F1100319460948E7
:102BB00001F034FC00220021152001F0F8FB152063
:102BC00001F011FC00BF2037BD4680BD006400400D
:102BD000001002400008014080B588B000AF786066
:102BE00007F1100300221A605A609A60DA607B686D
:102BF0001B68154A934223D1144B9B69134A43F037
:102C000008039361114B9B6903F00803FB60FB68A9
:102C1000C0233B6112237B610323FB6107F1100397
:102C200019460B4801F0FAFB084BDB69074A43F4ED
:102C30000013D361054BDB6903F40013BB60BB6871
:102C400000BF2037BD4680BD005400400010024048
:102C5000000C014080B584B000AF78607B681B68D1
:102C60000D4A934213D10D4BDB690C4A43F002032A
:102C7000D3610A4BDB6903F00203FB60FB680022AF
:102C800000211D2001F093FB1D2001F0ACFB00BFD3
:102C90001037BD4680BD00BF000400400010024058
:102CA00080B58AB000AF786007F1180300221A607F
:102CB0005A609A60DA607B681B68374A934232D167
:102CC000364B9B69354A43F480439361334B9B6990
:102CD00003F480437B617B69304B9B692F4A43F04F
:102CE000040393612D4B9B6903F004033B613B6933
:102CF0004FF40073BB610223FB6103237B6207F186
:102D000018031946264801F089FB4FF48063BB6124
:102D10000023FB6100233B6207F11803194620489A
:102D200001F07CFB34E07B681B681E4A93422FD184
:102D30001A4BDB69194A43F40033D361174BDB6943
:102D400003F40033FB60FB68144B9B69134A43F0A8
:102D500004039361114B9B6903F00403BB60BB68E0
:102D60000423BB610223FB6103237B6207F1180389
:102D700019460B4801F052FB0823BB610023FB619D
:102D800000233B6207F118031946054801F046FB92
:102D900000BF2837BD4680BD00380140001002400A
:102DA000000801400044004080B400AFFEE780B45A
:102DB00000AFFEE780B400AFFEE780B400AFFEE7EF
:102DC00080B400AFFEE780B400AF00BFBD4680BC5A
:102DD000704780B400AF00BFBD4680BC704780B470
:102DE00000AF00BFBD4680BC704780B500AF00F0AB
:102DF00075F900BF80BD000080B500AF024800F04B
:102E0000DBFF00BF80BD00BF6002002080B500AFC7
:102E1000024803F07BFA00BF80BD00BFDC02002047
:102E200080B400AF01231846BD4680BC704780B512
:102E300082B000AF7860396005F068F8034616226A
:102E40001A604FF0FF3318460837BD4680BD80B585
:102E500082B000AF78604FF0FF317868FFF7E7FF8E
:102E6000FEE780B586B000AFF860B9607A600023F5
:102E70007B610AE0AFF300800146BB685A1CBA6070
:102E8000CAB21A707B6901337B617A697B689A42A6
:102E9000F0DB7B6818461837BD4680BD80B586B02C
:102EA00000AFF860B9607A6000237B6109E0BB681D
:102EB0005A1CBA601B78184600F092F87B690133FF
:102EC0007B617A697B689A42F1DB7B681846183728
:102ED000BD4680BD80B483B000AF78604FF0FF3353
:102EE00018460C37BD4680BC704780B483B000AF35
:102EF000786039603B684FF400525A6000231846EE
:102F00000C37BD4680BC704780B483B000AF78609A
:102F1000012318460C37BD4680BC704780B485B08D
:102F200000AFF860B9607A60002318461437BD46D8
:102F300080BC704780B586B000AF7860144A154BEE
:102F4000D31A7B617B693B61134B1B68002B02D159
:102F5000114B124A1A60104B1A687B6813443A6985
:102F60009A4207D204F0D2FF03460C221A604FF0B7
:102F7000FF3309E0084B1B68FB60074B1A687B684E
:102F80001344054A1360FB6818461837BD4680BDD8
:102F90000050002000040000D40300203005002071
:102FA00080B400AF00BFBD4680BC704780B483B022
:102FB00000AF78607B681A68074B1B689A4205D19E
:102FC000064B1B686433054A136000E000BF00BF76
:102FD0000C37BD4680BC7047DC020020D8030020BF
:102FE00080B582B000AF7860391D4FF0FF33012209
:102FF000034803F037FD7B6818460837BD4680BD9F
:1030000024030020FFF7CCFF0B480C490C4A002397
:1030100002E0D458C4500433C4188C42F9D3094A8E
:10302000094C002301E013600432A242FBD304F0F8
:1030300073FFFFF7B5F8704700000020D8010020AB
:1030400030BA0008D80100202C050020FEE700005F
:1030500080B500AF084B1B68074A43F010031360AC
:10306000032001F099F90F2000F008F8FFF702FDA6
:103070000023184680BD00BF0020024080B582B00A
:1030800000AF7860124B1A68124B1B7819464FF448
:103090007A73B3FBF1F3B2FBF3F3184601F0B1F925
:1030A0000346002B01D001230EE07B680F2B0AD8CA
:1030B000002279684FF0FF3001F079F9064A7B6809
:1030C0001360002300E0012318460837BD4680BD89
:1030D000040000200C0000200800002080B400AF95
:1030E000054B1B781A46054B1B681344034A1360B3
:1030F00000BFBD4680BC70470C000020DC030020F0
:1031000080B400AF024B1B681846BD4680BC7047B8
:10311000DC03002080B584B000AF7860FFF7F0FFDB
:10312000B8607B68FB60FB68B3F1FF3F05D00A4BDA
:103130001B781A46FB681344FB6000BFFFF7E0FFF3
:103140000246BB68D31AFA689A42F7D800BF00BF9C
:103150001037BD4680BD00BF0C00002080B586B092
:1031600000AF78600023FB7500233B610023BB6048
:103170000023FB607B68002B01D10123BEE07B684C
:103180009B68002B7B689B6A002B09D17B6800221F
:10319000DA627B68002283F824207868FFF78CFCD1
:1031A000786800F0ABF90346FB757B689B6A03F017
:1031B0001003002B40F09980FB7D002B40F09580A0
:1031C0007B689B6A23F4885323F0020343F00202D6
:1031D0007B689A627B685A687B68DB691A437B6804
:1031E0001B7B5B001343BA681343BB607B689B681F
:1031F000B3F5807F03D07B689B68012B02D14FF42D
:10320000807300E000233A6913433B617B681B7DB8
:10321000012B19D17B681B7B002B09D17B689B6933
:10322000013B5A033B69134343F400633B610BE0EA
:103230007B689B6A43F020027B689A627B68DB6A4A
:1032400043F001027B68DA627B681B685B6823F4E9
:1032500069417B681B683A690A435A607B681B684E
:103260009A68284B13407A681268B9680B439360D8
:103270007B689B68B3F5807F03D07B689B68012BDC
:1032800004D17B681B69013B1B05FB607B681B68E5
:10329000DB6A23F470017B681B68FA680A43DA6210
:1032A0007B681B689A68184B1340BA689A420BD126
:1032B0007B680022DA627B689B6A23F0030343F099
:1032C00001027B689A6218E07B689B6A23F0120314
:1032D00043F010027B689A627B68DB6A43F001026C
:1032E0007B68DA620123FB7507E07B689B6A43F029
:1032F00010027B689A620123FB75FB7D1846183724
:10330000BD4680BDFDF7E1FFFE0E1FFF80B485B016
:1033100000AF786039600023FB730023BB607B68DB
:1033200093F82430012B01D10223DCE07B680122D9
:1033300083F824203B685B68062B1CD87B681B68DD
:10334000596B3B685A6813469B001344053B1F2288
:1033500002FA03F3DB4319403B6818683B685A687C
:1033600013469B001344053B00FA03F27B681B687D
:103370000A435A633CE03B685B680C2B1CD87B68B3
:103380001B68196B3B685A6813469B001344233B28
:103390001F2202FA03F3DB4319403B6818683B68BD
:1033A0005A6813469B001344233B00FA03F27B68E0
:1033B0001B680A431A631BE07B681B68D96A3B6879
:1033C0005A6813469B001344413B1F2202FA03F341
:1033D000DB4319403B6818683B685A6813469B00FA
:1033E0001344413B00FA03F27B681B680A43DA622C
:1033F0003B681B68092B1CD97B681B68D9683B6834
:103400001A6813465B0013441E3B072202FA03F3BB
:10341000DB4319403B6898683B681A6813465B00B9
:1034200013441E3B00FA03F27B681B680A43DA6010
:1034300019E07B681B6819693B681A6813465B00D2
:103440001344072202FA03F3DB4319403B689868F0
:103450003B681A6813465B00134400FA03F27B686A
:103460001B680A431A613B681B68102B03D03B683A
:103470001B68112B32D17B681B681D4A934225D1F2
:103480007B681B689B6803F40003002B26D17B68D4
:103490001B689A687B681B6842F400029A603B686C
:1034A0001B68102B1AD1134B1B68134AA2FB032372
:1034B0009A0C13469B0013445B00BB6002E0BB68A0
:1034C000013BBB60BB68002BF9D107E07B689B6ABE
:1034D00043F020027B689A620123FB737B68002221
:1034E00083F82420FB7B18461437BD4680BC704708
:1034F000002401400400002083DE1B4380B584B01B
:1035000000AF78600023FB607B681B689B6803F05A
:103510000103012B2ED17B681B689A687B681B68AE
:1035200022F001029A60FFF7EBFDF8601BE0FFF765
:10353000E7FD0246FB68D31A022B14D97B681B688F
:103540009B6803F00103012B0DD17B689B6A43F05C
:1035500010027B689A627B68DB6A43F001027B6839
:10356000DA62012307E07B681B689B6803F00103B4
:10357000012BDCD0002318461037BD4680BD80B536
:1035800084B000AF78607B68002B01D10123EDE0AF
:103590007B6893F82030DBB2002B02D17868FFF70C
:1035A000C7FA7B681B681A687B681B6842F00102D7
:1035B0001A60FFF7A5FDF86012E0FFF7A1FD0246D3
:1035C000FB68D31A0A2B0BD97B685B6A43F4003281
:1035D0007B685A627B68052283F820200123C5E0BE
:1035E0007B681B685B6803F00103002BE5D07B68F8
:1035F0001B681A687B681B6822F002021A60FFF7DA
:103600007FFDF86012E0FFF77BFD0246FB68D31AEE
:103610000A2B0BD97B685B6A43F400327B685A62E1
:103620007B68052283F8202001239FE07B681B68CC
:103630005B6803F00203002BE5D17B681B7E012B46
:1036400008D17B681B681A687B681B6842F080029F
:103650001A6007E07B681B681A687B681B6822F0A9
:1036600080021A607B685B7E012B08D17B681B6837
:103670001A687B681B6842F040021A6007E07B68AA
:103680001B681A687B681B6822F040021A607B681E
:103690009B7E012B08D17B681B681A687B681B68BE
:1036A00042F020021A6007E07B681B681A687B689A
:1036B0001B6822F020021A607B68DB7E012B08D198
:1036C0007B681B681A687B681B6822F010021A600E
:1036D00007E07B681B681A687B681B6842F0100271
:1036E0001A607B681B7F012B08D17B681B681A68F6
:1036F0007B681B6842F008021A6007E07B681B6861
:103700001A687B681B6822F008021A607B685B7F7E
:10371000012B08D17B681B681A687B681B6842F024
:1037200004021A6007E07B681B681A687B681B68E4
:1037300022F004021A607B689A687B68DB681A438F
:103740007B681B691A437B685B6942EA03017B68FB
:103750005B685A1E7B681B680A43DA617B6800223B
:103760005A627B68012283F8202000231846103714
:10377000BD4680BD80B487B000AF786039607B689B
:103780001B687B617B6893F82030FB74FB7C012B0A
:1037900003D0FB7C022B40F0AA807B69D3F8003277
:1037A00043F001027B69C3F800223B685B6903F0C8
:1037B0001F03012202FA03F3FB607B69D3F81C228A
:1037C000FB68DB431A407B69C3F81C223B68DB695A
:1037D000002B23D17B69D3F80C22FB68DB431A4012
:1037E0007B69C3F80C223B68DB6819043B685B68A3
:1037F0009BB23A68526919437B69483243F83210E8
:103800003B689B6819043B681B689AB23B685B691C
:103810000A4379694833DB000B445A603B68DB6933
:10382000012B22D17B69D3F80C22FB681A437B69F8
:10383000C3F80C223B681B6819043B685B689BB2A9
:103840003A68526919437B69483243F832103B6841
:103850009B6819043B68DB689AB23B685B690A4362
:1038600079694833DB000B445A603B689B69002B45
:1038700009D17B69D3F80422FB68DB431A407B69DA
:10388000C3F8042207E07B69D3F80422FB681A43DB
:103890007B69C3F804223B681B69002B09D17B6953
:1038A000D3F81422FB68DB431A407B69C3F8142267
:1038B00007E07B69D3F81422FB681A437B69C3F8DD
:1038C00014223B681B6A012B07D17B69D3F81C22A9
:1038D000FB681A437B69C3F81C227B69D3F800326A
:1038E00023F001027B69C3F80022002306E07B6815
:1038F0005B6A43F480227B685A62012318461C37B6
:10390000BD4680BC704780B584B000AF78607B68EE
:1039100093F82030DBB2012B2ED17B68022283F892
:1039200020207B681B681A687B681B6822F00102F4
:103930001A60FFF7E5FBF86012E0FFF7E1FB0246D3
:10394000FB68D31A0A2B0BD97B685B6A43F40032FD
:103950007B685A627B68052283F82020012312E0ED
:103960007B681B685B6803F00103002BE5D17B6873
:1039700000225A62002306E07B685B6A43F400225F
:103980007B685A62012318461037BD4680BD80B45B
:1039900089B000AFF860B9607A603B60FB6893F86B
:1039A0002030FB77FB681B689B68BB61FB7F012BAA
:1039B00003D0FB7F022B40F0AD80BB6903F0806336
:1039C000002B0AD1BB6903F00063002B05D1BB6952
:1039D00003F08053002B00F09580BB691B0E03F0B1
:1039E00003037B6101227B699A403B681A60BB68D4
:1039F0009B68002B0DD1BB681B685A05BB68DB6850
:103A0000F96809681A437B6918331B010B441A6073
:103A10000FE0BB685B68DA00BB689B681A43BB6851
:103A2000DB68F96809681A437B6918331B010B448A
:103A30001A60FB681968BB681A697B6918331B0137
:103A40000B4404331A60BB681B7D012B11D1FB684A
:103A50001A687B6918331B01134404331B68FA6826
:103A6000116843F480727B6918331B010B440433E3
:103A70001A607B6807331B781A067B6806331B784D
:103A80001B041A437B6805331B781B0213437A68B7
:103A9000043212781046FA68116843EA00027B6922
:103AA0001B010B4403F5C6731A607B6803331B7854
:103AB0001A067B6802331B781B041A437B680133A8
:103AC0001B781B0213437A6812781046FA68116853
:103AD00043EA00027B691B010B4403F5C4731A60BF
:103AE000FB681A687B6918331B0113441B68FA686A
:103AF000116843F001027B6918331B010B441A6003
:103B000000230EE0FB685B6A43F40012FB685A6214
:103B1000012306E0FB685B6A43F48022FB685A627B
:103B2000012318462437BD4680BC704780B487B057
:103B300000AFF860B9607A603B60FB6893F82030B2
:103B4000FB75FB7D012B03D0FB7D022B40F0038135
:103B5000BB68002B0ED1FB681B68DB6803F0030316
:103B6000002B16D1FB685B6A43F40012FB685A62B3
:103B70000123F7E0FB681B681B6903F00303002BBC
:103B800007D1FB685B6A43F40012FB685A620123A9
:103B9000E8E0FB681A68BB681B331B0113441B6811
:103BA00003F004027B689A607B689B68002B0CD151
:103BB000FB681A68BB681B331B0113441B685B0D51
:103BC000C3F30A027B681A600BE0FB681A68BB68E3
:103BD0001B331B0113441B68DB0823F060427B6826
:103BE0005A60FB681A68BB681B331B0113441B68CF
:103BF00003F002027B68DA60FB681A68BB681B335B
:103C00001B01134404331B6803F00803002B03D08B
:103C10007B6808221A610BE0FB681A68BB681B33DB
:103C20001B01134404331B6803F00F027B681A6105
:103C3000FB681A68BB681B331B01134404331B6801
:103C40001B0ADAB27B689A61FB681A68BB681B338F
:103C50001B01134404331B681B0C9AB27B685A6126
:103C6000FB681A68BB681B01134403F5DC731B680F
:103C7000DAB23B681A70FB681A68BB681B01134410
:103C800003F5DC731B681A0A3B680133D2B21A7061
:103C9000FB681A68BB681B01134403F5DC731B68DF
:103CA0001A0C3B680233D2B21A70FB681A68BB6800
:103CB0001B01134403F5DC731B681A0E3B680333C6
:103CC000D2B21A70FB681A68BB681B01134403F573
:103CD000DE731A683B680433D2B21A70FB681A6844
:103CE000BB681B01134403F5DE731B681A0A3B68AB
:103CF0000533D2B21A70FB681A68BB681B01134403
:103D000003F5DE731B681A0C3B680633D2B21A70D7
:103D1000FB681A68BB681B01134403F5DE731B685C
:103D20001A0E3B680733D2B21A70BB68002B08D159
:103D3000FB681B68DA68FB681B6842F02002DA60E7
:103D400007E0FB681B681A69FB681B6842F02002E9
:103D50001A61002306E0FB685B6A43F48022FB687B
:103D60005A62012318461C37BD4680BC704780B498
:103D700085B000AF786039607B6893F82030FB73C2
:103D8000FB7B012B02D0FB7B022B09D17B681B68DC
:103D900059697B681B683A680A435A61002306E048
:103DA0007B685B6A43F480227B685A620123184671
:103DB0001437BD4680BC704780B58AB000AF7860CC
:103DC00000237B627B681B685B693B627B681B68C6
:103DD0005B68FB617B681B689B68BB617B681B68D9
:103DE000DB687B617B681B681B693B617B681B68C8
:103DF0009B69FB603B6A03F00103002B7CD0BB692D
:103E000003F00103002B23D07B681B6801229A601A
:103E1000BB6903F00203002B03D0786800F083F93C
:103E200016E0BB6903F00403002B04D07B6A43F463
:103E300000637B620CE0BB6903F00803002B04D035
:103E40007B6A43F480537B6202E0786800F086F975
:103E5000BB6903F48073002B24D07B681B684FF48C
:103E600080729A60BB6903F40073002B03D07868FA
:103E700000F062F916E0BB6903F48063002B04D004
:103E80007B6A43F400537B620CE0BB6903F400637C
:103E9000002B04D07B6A43F480437B6202E07868A5
:103EA00000F065F9BB6903F48033002B24D07B68F4
:103EB0001B684FF480329A60BB6903F40033002B17
:103EC00003D0786800F041F916E0BB6903F4802361
:103ED000002B04D07B6A43F400437B620CE0BB6997
:103EE00003F40023002B04D07B6A43F480337B620D
:103EF00002E0786800F044F93B6A03F00803002B05
:103F00000CD07B6903F01003002B07D07B6A43F4CD
:103F100000737B627B681B681022DA603B6A03F0E7
:103F20000403002B0BD07B6903F00803002B06D0A1
:103F30007B681B680822DA60786800F033F93B6A16
:103F400003F00203002B09D07B681B68DB6803F0D9
:103F50000303002B02D0786800F01BF93B6A03F0E2
:103F60004003002B0CD03B6903F01003002B07D05B
:103F70007B6A43F480637B627B681B6810221A6152
:103F80003B6A03F02003002B0BD03B6903F00803CE
:103F9000002B06D07B681B6808221A61786800F045
:103FA0000AF93B6A03F01003002B09D07B681B68F9
:103FB0001B6903F00303002B02D07868FEF7CEF8EC
:103FC0003B6A03F40033002B0BD0FB6903F01003B2
:103FD000002B06D07B681B6810225A60786800F0BE
:103FE000F3F83B6A03F48033002B0BD0FB6903F03A
:103FF0000803002B06D07B681B6808225A6078688B
:1040000000F0EBF83B6A03F40043002B7BD0FB6924
:1040100003F00403002B72D03B6A03F48073002B7F
:1040200008D0FB6803F00103002B03D07B6A43F048
:1040300001037B623B6A03F40073002B08D0FB682A
:1040400003F00203002B03D07B6A43F002037B6280
:104050003B6A03F48063002B08D0FB6803F0040381
:10406000002B03D07B6A43F004037B623B6A03F4BA
:104070000063002B43D0FB6803F07003002B3ED09D
:10408000FB6803F07003602B2BD0602B2ED8502BD5
:1040900022D0502B2AD8402B19D0402B26D8302B99
:1040A00010D0302B22D8102B02D0202B05D01DE0B1
:1040B0007B6A43F008037B6219E07B6A43F01003DC
:1040C0007B6214E07B6A43F020037B620FE07B6A33
:1040D00043F040037B620AE07B6A43F080037B622B
:1040E00005E07B6A43F480737B6200E000BF7B687D
:1040F0001B689A697B681B6822F070029A617B6872
:104100001B6804225A607B6A002B08D07B685A6ABD
:104110007B6A1A437B685A62786800F067F800BFD0
:104120002837BD4680BD80B483B000AF786000BF43
:104130000C37BD4680BC704780B483B000AF786058
:1041400000BF0C37BD4680BC704780B483B000AF61
:10415000786000BF0C37BD4680BC704780B483B028
:1041600000AF786000BF0C37BD4680BC704780B49C
:1041700083B000AF786000BF0C37BD4680BC70478D
:1041800080B483B000AF786000BF0C37BD4680BC00
:10419000704780B483B000AF786000BF0C37BD4675
:1041A00080BC704780B483B000AF786000BF0C372C
:1041B000BD4680BC704780B483B000AF786000BF5C
:1041C0000C37BD4680BC704780B483B000AF7860C8
:1041D00000BF0C37BD4680BC704780B483B000AFD1
:1041E000786000BF0C37BD4680BC704780B483B098
:1041F00000AF786000BF0C37BD4680BC7047000040
:1042000080B485B000AF78607B6803F00703FB6083
:104210000C4BDB68BB60BA684FF6FF031340BB6012
:10422000FB681A02BB68134343F0BF6343F40033D7
:10423000BB60044ABB68D36000BF1437BD4680BC76
:10424000704700BF00ED00E080B400AF044BDB68B6
:104250001B0A03F007031846BD4680BC704700BF29
:1042600000ED00E080B483B000AF0346FB7197F926
:104270000730002B0BDBFB7903F01F02064997F98F
:1042800007305B09012000FA02F241F8232000BF49
:104290000C37BD4680BC704700E100E080B483B0BD
:1042A00000AF03463960FB7197F90730002B0ADB3A
:1042B0003B68DAB20C4997F907301201D2B20B44CD
:1042C00083F800230AE03B68DAB20849FB7903F07F
:1042D0000F03043B1201D2B20B441A7600BF0C3715
:1042E000BD4680BC704700BF00E100E000ED00E08B
:1042F00080B489B000AFF860B9607A60FB6803F001
:104300000703FB61FB69C3F10703042B28BF0423E8
:10431000BB61FB690433062B02D9FB69033B00E058
:1043200000237B614FF0FF32BB6902FA03F3DA43EB
:10433000BB681A407B699A404FF0FF317B6901FAF4
:1043400003F3D9437B680B40134318462437BD461B
:1043500080BC704780B582B000AF78607B68013B5D
:10436000B3F1807F01D301230FE00A4A7B68013B50
:1043700053600F214FF0FF30FFF790FF054B0022F5
:104380009A60044B07221A60002318460837BD467E
:1043900080BD00BF10E000E080B582B000AF786063
:1043A0007868FFF72DFF00BF0837BD4680BD80B598
:1043B00086B000AF0346B9607A60FB7300237B616F
:1043C000FFF742FF78617A68B9687869FFF790FF74
:1043D000024697F90F3011461846FFF75FFF00BFFE
:1043E0001837BD4680BD80B582B000AF0346FB7173
:1043F00097F907301846FFF735FF00BF0837BD466D
:1044000080BD80B582B000AF78607868FFF7A2FF0A
:10441000034618460837BD4680BD000080B48BB007
:1044200000AF7860396000237B6200233B6269E162
:1044300001227B6A02FA03F3FB613B681B68FA699D
:104440001340BB61BA69FB699A4240F058813B68EE
:104450005B689A4A93425ED0984A934275D8984ACC
:10446000934258D0964A93426FD8964A934252D07C
:10447000944A934269D8944A93424CD0924A9342C8
:1044800063D8924A934246D0904A93425DD8122B09
:104490002AD8122B59D801A252F823F01745000848
:1044A000F144000803450008454500084B45000855
:1044B0004B4500084B4500084B4500084B4500089C
:1044C0004B4500084B4500084B4500084B4500088C
:1044D0004B4500084B4500084B4500084B4500087C
:1044E000F94400080D450008794A934213D02CE0A6
:1044F0003B68DB683B6229E03B68DB6804333B6276
:1045000024E03B68DB6808333B621FE03B68DB6804
:104510000C333B621AE03B689B68002B02D10423FA
:104520003B6213E03B689B68012B05D108233B628B
:104530007B68FA691A6109E008233B627B68FA69C3
:104540005A6103E000233B6200E000BFBB69FF2B20
:1045500001D87B6801E07B6804337B61BB69FF2B7A
:1045600002D87B6A9B0002E07B6A083B9B003B61B0
:104570007B691A680F213B6901FA03F3DB431A4098
:10458000396A3B6901FA03F31A437B691A603B6895
:104590005B6803F08053002B00F0B1804D4B9B69AA
:1045A0004C4A43F0010393614A4B9B6903F00103BA
:1045B000BB60BB68484A7B6A9B08023352F82330D1
:1045C000FB607B6A03F003039B000F2202FA03F3F4
:1045D000DB43FA681340FB607B68404A934213D088
:1045E0007B683F4A93420DD07B683E4A934207D096
:1045F0007B683D4A934201D1032306E0042304E093
:10460000022302E0012300E000237A6A02F00302A1
:1046100092009340FA681343FB602F497B6A9B0822
:104620000233FA6841F823203B685B6803F4801387
:10463000002B06D02D4B9A682C49BB6913438B6025
:1046400006E02A4B9A68BB69DB43284913408B601C
:104650003B685B6803F40013002B06D0234BDA6839
:104660002249BB691343CB6006E0204BDA68BB6983
:10467000DB431E491340CB603B685B6803F40033A7
:10468000002B06D0194B5A681849BB6913434B607D
:1046900006E0164B5A68BB69DB43144913404B6074
:1046A0003B685B6803F48033002B21D00F4B1A6802
:1046B0000E49BB6913430B6021E000BF00003210BC
:1046C0000000311000002210000021100000121024
:1046D00000001110001002400000014000080140DD
:1046E000000C014000100140001401400004014092
:1046F0000B4B1A68BB69DB43094913400B607B6AAB
:1047000001337B623B681A687B6A22FA03F3002B51
:104710007FF48EAE00BF00BF2C37BD4680BC704713
:104720000004014080B483B000AF78600B467B800A
:1047300013467B707B78002B03D07A887B681A61E4
:1047400003E07B881A047B681A6100BF0C37BD4602
:1047500080BC704780B485B000AF78600B467B802A
:104760007B68DB68FB607A88FB6813401A04FB688F
:10477000D9437B880B401A437B681A6100BF14370A
:10478000BD4680BC7047000080B584B000AF786043
:104790007B68002B01D101232BE17B6893F83D302E
:1047A000DBB2002B06D17B68002283F83C207868BE
:1047B000FEF712FA7B68242283F83D207B681B6891
:1047C0001A687B681B6822F001021A607B681B680C
:1047D0001A687B681B6842F400421A607B681B6899
:1047E0001A687B681B6822F400421A6001F0F0FB33
:1047F000F8607B685B68814A934207D8FB68804A0F
:10480000934294BF01230023DBB206E0FB687D4A9C
:10481000934294BF01230023DBB2002B01D001237C
:10482000E7E0FB68784AA2FB03239B0CBB607B6834
:104830001B685B6823F03F017B681B68BA680A430A
:104840005A607B681B681B6A23F03F017B685B68CA
:104850006A4A934202D8BB68013309E0BB684FF44F
:10486000967202FB03F3694AA2FB03239B090133FF
:104870007A6812680B4313627B681B68DB6923F458
:104880004F4222F0FF027B685B685C498B4219D87B
:10489000FB68591E7B685B685B00B1FBF3F3591C36
:1048A00040F6FC730B40002B0AD0FB68591E7B6856
:1048B0005B685B00B1FBF3F30133C3F30B0351E01F
:1048C00004234FE07B689B68002B11D1FB68581EC6
:1048D0007B6859680B465B000B44B0FBF3F3013374
:1048E000C3F30B03002B0CBF01230023DBB212E048
:1048F000FB68581E7B6859680B469B000B44990067
:104900000B44B0FBF3F30133C3F30B03002B0CBFD9
:1049100001230023DBB2002B01D0012322E07B68BE
:104920009B68002B0ED1FB68581E7B6859680B46AC
:104930005B000B44B0FBF3F30133C3F30B0343F40D
:1049400000430FE0FB68581E7B6859680B469B00CC
:104950000B4499000B44B0FBF3F30133C3F30B0397
:1049600043F44043796809681343CB617B681B6853
:104970001B6823F0C0017B68DA697B681B6A1A43F5
:104980007B681B680A431A607B681B689B6823F47A
:10499000034323F0FF037A6811697A68D2681143F0
:1049A0007A6812680B4393607B681B68DB6823F0AE
:1049B000FF017B685A697B689B691A437B681B68A7
:1049C0000A43DA607B681B681A687B681B6842F0E0
:1049D00001021A607B6800221A647B68202283F837
:1049E0003D207B6800221A637B68002283F83E200A
:1049F000002318461037BD4680BD00BFA0860100C9
:104A00007F841E00FF083D0083DE1B43D34D6210F0
:104A100080B588B002AFF860084611461A460346D2
:104A20007B810B463B811346FB80FEF769FB786177
:104A3000FB6893F83D30DBB2202B40F0D9807B69D6
:104A40000093192301226D49F86800F0C1FC034668
:104A5000002B01D00223CCE0FB6893F83C30012B03
:104A600001D10223C5E0FB68012283F83C20FB68EA
:104A70001B681B6803F00103012B07D0FB681B6850
:104A80001A68FB681B6842F001021A60FB681B6829
:104A90001A68FB681B6822F400621A60FB68212216
:104AA00083F83D20FB68402283F83E20FB6800220B
:104AB0001A64FB683A6A5A62FB68BA8C5A85FB68CA
:104AC0005B8D9AB2FB681A85FB684D4ADA62F888FA
:104AD0003A8979897B690193BB6A00930346F86838
:104AE00000F0F8FA0346002B52D0012381E07A69E6
:104AF000B96AF86800F086FD0346002B0DD0FB680C
:104B00001B6C042B07D1FB681B681A68FB681B68C9
:104B100042F400721A6001236BE0FB685B6A1A784A
:104B2000FB681B681A61FB685B6A5A1CFB685A6267
:104B3000FB681B8D013B9AB2FB681A85FB685B8D95
:104B40009BB2013B9AB2FB685A85FB681B685B69A4
:104B500003F00403042B1BD1FB681B8D002B17D023
:104B6000FB685B6A1A78FB681B681A61FB685B6A02
:104B70005A1CFB685A62FB681B8D013B9AB2FB68AA
:104B80001A85FB685B8D9BB2013B9AB2FB685A8524
:104B9000FB681B8D002BAAD17A69B96AF86800F00E
:104BA00079FD0346002B0DD0FB681B6C042B07D14D
:104BB000FB681B681A68FB681B6842F400721A6085
:104BC000012316E0FB681B681A68FB681B6842F447
:104BD00000721A60FB68202283F83D20FB680022E7
:104BE00083F83E20FB68002283F83C20002300E08D
:104BF000022318461837BD4680BD00BF02001000D2
:104C00000000FFFF80B58CB002AFF8600846114687
:104C10001A4603467B810B463B811346FB800023EB
:104C20003B62FEF76DFA7862FB6893F83D30DBB2C9
:104C3000202B40F044827B6A009319230122824991
:104C4000F86800F0C5FB0346002B01D0022337E2D1
:104C5000FB6893F83C30012B01D1022330E2FB6862
:104C6000012283F83C20FB681B681B6803F00103EA
:104C7000012B07D0FB681B681A68FB681B6842F0B1
:104C800001021A60FB681B681A68FB681B6822F443
:104C900000621A60FB68222283F83D20FB684022F4
:104CA00083F83E20FB6800221A64FB683A6B5A6264
:104CB000FB68BA8E5A85FB685B8D9AB2FB681A85D1
:104CC000FB68624ADA62F8883A8979897B6A0193DB
:104CD000BB6B00930346F86800F092FA0346002B82
:104CE00001D00123ECE1FB681B8D002B13D10023C5
:104CF000FB61FB681B685B69FB61FB681B689B6968
:104D0000FB61FB69FB681B681A68FB681B6842F45F
:104D100000721A60C0E1FB681B8D012B1ED1FB687D
:104D20001B681A68FB681B6822F480621A6072B6FE
:104D300000BF0023BB61FB681B685B69BB61FB684C
:104D40001B689B69BB61BB69FB681B681A68FB68D1
:104D50001B6842F400721A6062B635E0FB681B8D76
:104D6000022B1ED1FB681B681A68FB681B6842F4A3
:104D700000621A6072B600BF00237B61FB681B688B
:104D80005B697B61FB681B689B697B617B69FB6876
:104D90001B681A68FB681B6822F480621A6062B69E
:104DA00012E0FB681B681A68FB681B6842F48062AB
:104DB0001A6000233B61FB681B685B693B61FB6811
:104DC0001B689B693B613B6966E1FB681B8D032B9C
:104DD00000F21F81FB681B8D012B23D17A6AB96B0E
:104DE000F86800F09FFC0346002B01D0012367E127
:104DF000FB681B681A69FB685B6AD2B21A70FB68B1
:104E00005B6A5A1CFB685A62FB681B8D013B9AB2B5
:104E1000FB681A85FB685B8D9BB2013B9AB2FB680D
:104E20005A8539E1FB681B8D022B52D17B6A0093B6
:104E3000BB6B00220649F86800F0CAFA0346002B53
:104E400008D001233CE100BF020010000000FFFF7A
:104E50000400010072B600BFFB681B681A68FB689B
:104E60001B6842F400721A60FB681B681A69FB68D1
:104E70005B6AD2B21A70FB685B6A5A1CFB685A62A2
:104E8000FB681B8D013B9AB2FB681A85FB685B8D42
:104E90009BB2013B9AB2FB685A8562B600BFFB68C1
:104EA0001B681A69FB685B6AD2B21A70FB685B6A9E
:104EB0005A1CFB685A62FB681B8D013B9AB2FB6867
:104EC0001A85FB685B8D9BB2013B9AB2FB685A85E1
:104ED000E2E07B6A0093BB6B00227B49F86800F03C
:104EE00077FA0346002B01D00123E9E0FB681B6839
:104EF0001A68FB681B6822F480621A6072B600BFF1
:104F0000FB681B681A69FB685B6AD2B21A70FB689F
:104F10005B6A5A1CFB685A62FB681B8D013B9AB2A4
:104F2000FB681A85FB685B8D9BB2013B9AB2FB68FC
:104F30005A85664B1B68DB08654AA2FB03231A0AE5
:104F400013469B001344DA00D31A3B623B6A013BD1
:104F50003B623B6A002B18D1FB6800221A63FB6896
:104F6000202283F83D20FB68002283F83E20FB6866
:104F70001B6C43F02002FB681A6462B600BFFB683A
:104F8000002283F83C2001239AE0FB681B685B69E0
:104F900003F00403042BD9D1FB681B681A68FB6873
:104FA0001B6842F400721A60FB681B681A69FB6890
:104FB0005B6AD2B21A70FB685B6A5A1CFB685A6261
:104FC000FB681B8D013B9AB2FB681A85FB685B8D01
:104FD0009BB2013B9AB2FB685A8562B600BFFB6880
:104FE0001B681A69FB685B6AD2B21A70FB685B6A5D
:104FF0005A1CFB685A62FB681B8D013B9AB2FB6826
:105000001A85FB685B8D9BB2013B9AB2FB685A859F
:1050100042E07A6AB96BF86800F084FB0346002B23
:1050200001D001234CE0FB681B681A69FB685B6ACE
:10503000D2B21A70FB685B6A5A1CFB685A62FB6842
:105040001B8D013B9AB2FB681A85FB685B8D9BB296
:10505000013B9AB2FB685A85FB681B685B6903F0E9
:105060000403042B18D1FB681B681A69FB685B6A90
:10507000D2B21A70FB685B6A5A1CFB685A62FB6802
:105080001B8D013B9AB2FB681A85FB685B8D9BB256
:10509000013B9AB2FB685A85FB681B8D002B7FF49D
:1050A00094AEFB68202283F83D20FB68002283F841
:1050B0003E20FB68002283F83C20002300E002230E
:1050C00018462837BD4680BD0400010004000020BA
:1050D00089B5F81480B588B002AFF860084611466B
:1050E0001A4603467B810B463B811346FB80FB68D7
:1050F0001B681A68FB681B6842F480721A607B6A3E
:1051000000933B6A00224FF00111F86800F060F94B
:105110000346002B0DD0FB681B681B6803F48073EB
:10512000B3F5807F03D1FB684FF400721A64032348
:105130005FE07B89DBB21A46FB681B6802F0FE0267
:105140001A617B6A3A6A2D49F86800F0BBF9034698
:10515000002B01D001234CE000237B61FB681B681E
:105160005B697B61FB681B689B697B617B697A6A11
:10517000396AF86800F046FA0346002B0DD0FB6848
:105180001B6C042B07D1FB681B681A68FB681B6843
:1051900042F400721A6001232BE0FB88012B05D139
:1051A0003B89DAB2FB681B681A6121E03B891B0A64
:1051B0009BB2DAB2FB681B681A617A6A396AF868CE
:1051C00000F020FA0346002B0DD0FB681B6C042B6B
:1051D00007D1FB681B681A68FB681B6842F4007201
:1051E0001A60012305E03B89DAB2FB681B681A618B
:1051F000002318461837BD4680BD00BF02000100DD
:1052000080B588B002AFF860084611461A460346DA
:105210007B810B463B811346FB80FB681B681A6849
:10522000FB681B6842F480621A60FB681B681A689E
:10523000FB681B6842F480721A607B6A00933B6AC9
:1052400000224FF00111F86800F0C2F80346002B6D
:105250000DD0FB681B681B6803F48073B3F5807F77
:1052600003D1FB684FF400721A640323AAE07B8920
:10527000DBB21A46FB681B6802F0FE021A617B6A09
:105280003A6A5249F86800F01DF90346002B01D034
:10529000012397E000237B61FB681B685B697B61EE
:1052A000FB681B689B697B617B697A6A396AF8686D
:1052B00000F0A8F90346002B0DD0FB681B6C042BF3
:1052C00007D1FB681B681A68FB681B6842F4007210
:1052D0001A60012376E0FB88012B05D13B89DAB205
:1052E000FB681B681A6121E03B891B0A9BB2DAB29A
:1052F000FB681B681A617A6A396AF86800F082F9FB
:105300000346002B0DD0FB681B6C042B07D1FB68F8
:105310001B681A68FB681B6842F400721A6001235C
:1053200050E03B89DAB2FB681B681A617A6A396A15
:10533000F86800F067F90346002B0DD0FB681B6C82
:10534000042B07D1FB681B681A68FB681B6842F4D2
:1053500000721A60012335E0FB681B681A68FB685D
:105360001B6842F480721A607B6A00933B6A0022D9
:105370004FF00111F86800F02BF80346002B0DD018
:10538000FB681B681B6803F48073B3F5807F03D14F
:10539000FB684FF400721A64032313E07B89DBB2CD
:1053A00043F00103DAB2FB681B681A617B6A3A6A50
:1053B0000649F86800F086F80346002B01D0012367
:1053C00000E0002318461837BD4680BD02000100EA
:1053D00080B584B000AFF860B9603B601346FB71E4
:1053E00048E03B68B3F1FF3F44D0FDF789FE024639
:1053F000BB69D31A3A689A4202D33B68002B39D171
:10540000BB681B0CDBB2012B0DD1FB681B685B6911
:10541000DA43BB6813409BB2002B0CBF012300236F
:10542000DBB21A460CE0FB681B689B69DA43BB6879
:1054300013409BB2002B0CBF01230023DBB21A46A2
:10544000FB799A4216D1FB6800221A63FB6820227E
:1054500083F83D20FB68002283F83E20FB681B6C2C
:1054600043F02002FB681A64FB68002283F83C20AA
:10547000012323E0BB681B0CDBB2012B0DD1FB68C1
:105480001B685B69DA43BB6813409BB2002B0CBFFF
:1054900001230023DBB21A460CE0FB681B689B6902
:1054A000DA43BB6813409BB2002B0CBF01230023DF
:1054B000DBB21A46FB799A4293D000231846103784
:1054C000BD4680BD80B584B000AFF860B9607A6039
:1054D0003B6071E0FB681B685B6903F48063B3F5B4
:1054E000806F23D1FB681B681A68FB681B6842F455
:1054F00000721A60FB681B686FF480625A61FB6877
:1055000000221A63FB68202283F83D20FB680022FA
:1055100083F83E20FB681B6C43F00402FB681A64AE
:10552000FB68002283F83C20012367E07B68B3F12D
:10553000FF3F41D0FDF7E4FD02463B68D31A7A688D
:105540009A4202D37B68002B36D1BB681B0CDBB2BE
:10555000012B0CD1FB681B685B69DA43BB68134005
:105560009BB2002B14BF01230023DBB20BE0FB68CE
:105570001B689B69DA43BB6813409BB2002B14BFC6
:1055800001230023DBB2002B16D0FB6800221A6334
:10559000FB68202283F83D20FB68002283F83E2030
:1055A000FB681B6C43F02002FB681A64FB68002256
:1055B00083F83C20012321E0BB681B0CDBB2012BEC
:1055C0000CD1FB681B685B69DA43BB6813409BB274
:1055D000002B14BF01230023DBB20BE0FB681B6828
:1055E0009B69DA43BB6813409BB2002B14BF0123B5
:1055F0000023DBB2002B7FF46DAF00231846103779
:10560000BD4680BD80B584B000AFF860B9607A60F7
:1056100034E0F86800F0E3F80346002B01D00123E2
:1056200034E0BB68B3F1FF3F28D0FDF769FD0246C7
:105630007B68D31ABA689A4202D3BB68002B1DD18B
:10564000FB681B685B6903F08003802B16D0FB6846
:1056500000221A63FB68202283F83D20FB680022A9
:1056600083F83E20FB681B6C43F02002FB681A6441
:10567000FB68002283F83C20012307E0FB681B68DD
:105680005B6903F08003802BC3D1002318461037D9
:10569000BD4680BD80B584B000AFF860B9607A6067
:1056A00034E0F86800F09BF80346002B01D001239A
:1056B00034E0BB68B3F1FF3F28D0FDF721FD02467F
:1056C0007B68D31ABA689A4202D3BB68002B1DD1FB
:1056D000FB681B685B6903F00403042B16D0FB68AE
:1056E00000221A63FB68202283F83D20FB68002219
:1056F00083F83E20FB681B6C43F02002FB681A64B1
:10570000FB68002283F83C20012307E0FB681B684C
:105710005B6903F00403042BC3D100231846103740
:10572000BD4680BD80B584B000AFF860B9607A60D6
:1057300049E0FB681B685B6903F01003102B19D16B
:10574000FB681B686FF010025A61FB6800221A6345
:10575000FB68202283F83D20FB68002283F83E206E
:10576000FB681A6CFB681A64FB68002283F83C2013
:10577000012330E0FDF7C4FC02467B68D31ABA6807
:105780009A4202D3BB68002B1DD1FB681B685B6982
:1057900003F04003402B16D0FB6800221A63FB681D
:1057A000202283F83D20FB68002283F83E20FB681E
:1057B0001B6C43F02002FB681A64FB68002283F82C
:1057C0003C20012307E0FB681B685B6903F0400392
:1057D000402BAED1002318461037BD4680BD80B4A3
:1057E00083B000AF78607B681B685B6903F48063FB
:1057F000B3F5806F1BD17B681B686FF480625A61C0
:105800007B6800221A637B68202283F83D207B6836
:10581000002283F83E207B681B6C43F004027B6807
:105820001A647B68002283F83C20012300E00023F7
:1058300018460C37BD4680BC7047000080B586B066
:1058400000AF78607B68002B01D1012372E27B6896
:105850001B6803F00103002B00F08780924B5B680C
:1058600003F00C03042B0CD08F4B5B6803F00C038C
:10587000082B12D18C4B5B6803F48033B3F5803F67
:105880000BD1894B1B6803F40033002B6CD07B6871
:105890005B68002B68D101234CE27B685B68B3F541
:1058A000803F06D1804B1B687F4A43F480331360EE
:1058B0002EE07B685B68002B0CD17B4B1B687A4A1F
:1058C00023F480331360784B1B68774A23F48023DA
:1058D00013601DE07B685B68B3F5A02F0CD1724BA1
:1058E0001B68714A43F4802313606F4B1B686E4A38
:1058F00043F4803313600BE06B4B1B686A4A23F45C
:1059000080331360684B1B68674A23F4802313605D
:105910007B685B68002B13D0FDF7F2FB386108E071
:10592000FDF7EEFB02463B69D31A642B01D9032332
:1059300000E25D4B1B6803F40033002BF0D014E051
:10594000FDF7DEFB386108E0FDF7DAFB02463B6954
:10595000D31A642B01D90323ECE1534B1B6803F4E6
:105960000033002BF0D100E000BF7B681B6803F020
:105970000203002B63D04C4B5B6803F00C03002B3D
:105980000BD0494B5B6803F00C03082B1CD1464B32
:105990005B6803F48033002B16D1434B1B6803F084
:1059A0000203002B05D07B681B69012B01D001236A
:1059B000C0E13D4B1B6823F0F8027B685B69DB00AC
:1059C000394913430B603AE07B681B69002B20D0F8
:1059D000364B01221A60FDF793FB386108E0FDF7B2
:1059E0008FFB02463B69D31A022B01D90323A1E1A5
:1059F0002D4B1B6803F00203002BF0D02A4B1B68D1
:105A000023F0F8027B685B69DB00274913430B60D6
:105A100015E0264B00221A60FDF772FB386108E0A2
:105A2000FDF76EFB02463B69D31A022B01D9032313
:105A300080E11D4B1B6803F00203002BF0D17B6853
:105A40001B6803F00803002B3AD07B689B69002B8E
:105A500019D0174B01221A60FDF752FB386108E09C
:105A6000FDF74EFB02463B69D31A022B01D90323F3
:105A700060E10D4B5B6A03F00203002BF0D00120C4
:105A800000F0CEFA1CE00A4B00221A60FDF738FB4A
:105A900038610FE0FDF734FB02463B69D31A022B55
:105AA00008D9032346E100BF001002400000424233
:105AB00080044242924B5B6A03F00203002BE9D15F
:105AC0007B681B6803F00403002B00F0A680002312
:105AD000FB758B4BDB6903F08053002B0DD1884B9A
